{
  "address": "0x5cD173CB781cc4e356Cf0e7f4678054c74f1AFBb",
  "abi": [
    {
      "inputs": [
        {
          "internalType": "address",
          "name": "owner",
          "type": "address"
        },
        {
          "internalType": "address",
          "name": "_tokenAddress",
          "type": "address"
        },
        {
          "internalType": "uint256",
          "name": "_tokenGate",
          "type": "uint256"
        }
      ],
      "stateMutability": "nonpayable",
      "type": "constructor"
    },
    {
      "anonymous": false,
      "inputs": [
        {
          "indexed": true,
          "internalType": "bytes32",
          "name": "role",
          "type": "bytes32"
        },
        {
          "indexed": true,
          "internalType": "bytes32",
          "name": "previousAdminRole",
          "type": "bytes32"
        },
        {
          "indexed": true,
          "internalType": "bytes32",
          "name": "newAdminRole",
          "type": "bytes32"
        }
      ],
      "name": "RoleAdminChanged",
      "type": "event"
    },
    {
      "anonymous": false,
      "inputs": [
        {
          "indexed": true,
          "internalType": "bytes32",
          "name": "role",
          "type": "bytes32"
        },
        {
          "indexed": true,
          "internalType": "address",
          "name": "account",
          "type": "address"
        },
        {
          "indexed": true,
          "internalType": "address",
          "name": "sender",
          "type": "address"
        }
      ],
      "name": "RoleGranted",
      "type": "event"
    },
    {
      "anonymous": false,
      "inputs": [
        {
          "indexed": true,
          "internalType": "bytes32",
          "name": "role",
          "type": "bytes32"
        },
        {
          "indexed": true,
          "internalType": "address",
          "name": "account",
          "type": "address"
        },
        {
          "indexed": true,
          "internalType": "address",
          "name": "sender",
          "type": "address"
        }
      ],
      "name": "RoleRevoked",
      "type": "event"
    },
    {
      "anonymous": false,
      "inputs": [
        {
          "indexed": true,
          "internalType": "address",
          "name": "from",
          "type": "address"
        },
        {
          "indexed": false,
          "internalType": "uint256",
          "name": "tokenId",
          "type": "uint256"
        },
        {
          "indexed": false,
          "internalType": "uint256",
          "name": "tokenBalance",
          "type": "uint256"
        }
      ],
      "name": "passClaimed",
      "type": "event"
    },
    {
      "anonymous": false,
      "inputs": [
        {
          "indexed": true,
          "internalType": "address",
          "name": "from",
          "type": "address"
        },
        {
          "indexed": false,
          "internalType": "uint256",
          "name": "tokenId",
          "type": "uint256"
        }
      ],
      "name": "passRevoked",
      "type": "event"
    },
    {
      "anonymous": false,
      "inputs": [
        {
          "indexed": true,
          "internalType": "address",
          "name": "from",
          "type": "address"
        },
        {
          "indexed": true,
          "internalType": "address",
          "name": "seasonPassAddress",
          "type": "address"
        }
      ],
      "name": "seasonPassAddressUpdated",
      "type": "event"
    },
    {
      "anonymous": false,
      "inputs": [
        {
          "indexed": true,
          "internalType": "address",
          "name": "from",
          "type": "address"
        },
        {
          "indexed": true,
          "internalType": "address",
          "name": "tokenAddress",
          "type": "address"
        }
      ],
      "name": "tokenAddressUpdated",
      "type": "event"
    },
    {
      "anonymous": false,
      "inputs": [
        {
          "indexed": true,
          "internalType": "address",
          "name": "from",
          "type": "address"
        },
        {
          "indexed": true,
          "internalType": "uint256",
          "name": "tokenGate",
          "type": "uint256"
        }
      ],
      "name": "tokenGateUpdated",
      "type": "event"
    },
    {
      "inputs": [],
      "name": "DEFAULT_ADMIN_ROLE",
      "outputs": [
        {
          "internalType": "bytes32",
          "name": "",
          "type": "bytes32"
        }
      ],
      "stateMutability": "view",
      "type": "function"
    },
    {
      "inputs": [],
      "name": "OWNER_ROLE",
      "outputs": [
        {
          "internalType": "bytes32",
          "name": "",
          "type": "bytes32"
        }
      ],
      "stateMutability": "view",
      "type": "function"
    },
    {
      "inputs": [],
      "name": "claim",
      "outputs": [],
      "stateMutability": "nonpayable",
      "type": "function"
    },
    {
      "inputs": [
        {
          "internalType": "bytes32",
          "name": "role",
          "type": "bytes32"
        }
      ],
      "name": "getRoleAdmin",
      "outputs": [
        {
          "internalType": "bytes32",
          "name": "",
          "type": "bytes32"
        }
      ],
      "stateMutability": "view",
      "type": "function"
    },
    {
      "inputs": [
        {
          "internalType": "bytes32",
          "name": "role",
          "type": "bytes32"
        },
        {
          "internalType": "address",
          "name": "account",
          "type": "address"
        }
      ],
      "name": "grantRole",
      "outputs": [],
      "stateMutability": "nonpayable",
      "type": "function"
    },
    {
      "inputs": [
        {
          "internalType": "bytes32",
          "name": "role",
          "type": "bytes32"
        },
        {
          "internalType": "address",
          "name": "account",
          "type": "address"
        }
      ],
      "name": "hasRole",
      "outputs": [
        {
          "internalType": "bool",
          "name": "",
          "type": "bool"
        }
      ],
      "stateMutability": "view",
      "type": "function"
    },
    {
      "inputs": [
        {
          "internalType": "address",
          "name": "memberAddress",
          "type": "address"
        }
      ],
      "name": "hasValidSeasonPass",
      "outputs": [
        {
          "internalType": "bool",
          "name": "",
          "type": "bool"
        }
      ],
      "stateMutability": "view",
      "type": "function"
    },
    {
      "inputs": [
        {
          "internalType": "bytes32",
          "name": "role",
          "type": "bytes32"
        },
        {
          "internalType": "address",
          "name": "account",
          "type": "address"
        }
      ],
      "name": "renounceRole",
      "outputs": [],
      "stateMutability": "nonpayable",
      "type": "function"
    },
    {
      "inputs": [
        {
          "internalType": "uint256",
          "name": "tokenId",
          "type": "uint256"
        }
      ],
      "name": "revoke",
      "outputs": [],
      "stateMutability": "nonpayable",
      "type": "function"
    },
    {
      "inputs": [
        {
          "internalType": "bytes32",
          "name": "role",
          "type": "bytes32"
        },
        {
          "internalType": "address",
          "name": "account",
          "type": "address"
        }
      ],
      "name": "revokeRole",
      "outputs": [],
      "stateMutability": "nonpayable",
      "type": "function"
    },
    {
      "inputs": [],
      "name": "seasonPassAddress",
      "outputs": [
        {
          "internalType": "address",
          "name": "",
          "type": "address"
        }
      ],
      "stateMutability": "view",
      "type": "function"
    },
    {
      "inputs": [
        {
          "internalType": "address",
          "name": "_seasonPassAddress",
          "type": "address"
        }
      ],
      "name": "setSeasonPass",
      "outputs": [],
      "stateMutability": "nonpayable",
      "type": "function"
    },
    {
      "inputs": [
        {
          "internalType": "address",
          "name": "_tokenAddress",
          "type": "address"
        }
      ],
      "name": "setTokenAddress",
      "outputs": [],
      "stateMutability": "nonpayable",
      "type": "function"
    },
    {
      "inputs": [
        {
          "internalType": "uint256",
          "name": "_tokenGate",
          "type": "uint256"
        }
      ],
      "name": "setTokenGate",
      "outputs": [],
      "stateMutability": "nonpayable",
      "type": "function"
    },
    {
      "inputs": [
        {
          "internalType": "bytes4",
          "name": "interfaceId",
          "type": "bytes4"
        }
      ],
      "name": "supportsInterface",
      "outputs": [
        {
          "internalType": "bool",
          "name": "",
          "type": "bool"
        }
      ],
      "stateMutability": "view",
      "type": "function"
    },
    {
      "inputs": [],
      "name": "tokenAddress",
      "outputs": [
        {
          "internalType": "address",
          "name": "",
          "type": "address"
        }
      ],
      "stateMutability": "view",
      "type": "function"
    },
    {
      "inputs": [],
      "name": "tokenGate",
      "outputs": [
        {
          "internalType": "uint256",
          "name": "",
          "type": "uint256"
        }
      ],
      "stateMutability": "view",
      "type": "function"
    }
  ],
  "transactionHash": "0x2973a784ecf6955e5bc5f14cf7f06c4e771b9a7b36a42e0cc06bb43a4f6dbef5",
  "args": [
    "0xf39Fd6e51aad88F6F4ce6aB8827279cffFb92266",
    "0xB19756427354460cbb40f839fd2b53c986dA5Fe5",
    "75"
  ],
  "solcInputHash": "948b1629f2df237a9932b18d195380db",
  "bytecode": "0x60806040523480156200001157600080fd5b506040516200157938038062001579833981016040819052620000349162000158565b620000607fb19546dff01e856fb3f010c267a7b1c60363cf8a4664e21cc89c26224620214e846200008b565b600280546001600160a01b0319166001600160a01b0393909316929092179091556003555062000198565b6200009782826200009b565b5050565b6000828152602081815260408083206001600160a01b038516845290915290205460ff1662000097576000828152602081815260408083206001600160a01b03851684529091529020805460ff19166001179055620000f73390565b6001600160a01b0316816001600160a01b0316837f2f8788117e7eff1d82e926ec794901d17c78024a50270940304540a733656f0d60405160405180910390a45050565b80516001600160a01b03811681146200015357600080fd5b919050565b6000806000606084860312156200016d578283fd5b62000178846200013b565b925062000188602085016200013b565b9150604084015190509250925092565b6113d180620001a86000396000f3fe608060405234801561001057600080fd5b506004361061010b5760003560e01c80634e71d92d116100a2578063a217fddf11610071578063a217fddf1461022c578063b399640814610234578063d547741f14610247578063e58378bb1461025a578063fec545f91461026f57600080fd5b80634e71d92d146101f557806350008e4a146101fd57806391d14854146102065780639d76ea581461021957600080fd5b806326a4e8d2116100de57806326a4e8d2146101a95780632f2ff15d146101bc578063340a3a7f146101cf57806336568abe146101e257600080fd5b80630172556e1461011057806301ffc9a71461014057806320c5429b14610163578063248a9ca314610178575b600080fd5b600154610123906001600160a01b031681565b6040516001600160a01b0390911681526020015b60405180910390f35b61015361014e3660046110df565b610282565b6040519015158152602001610137565b610176610171366004611098565b6102b9565b005b61019b610186366004611098565b60009081526020819052604090206001015490565b604051908152602001610137565b6101766101b7366004611060565b6104d7565b6101766101ca3660046110b0565b610557565b6101536101dd366004611060565b610582565b6101766101f03660046110b0565b610721565b61017661079f565b61019b60035481565b6101536102143660046110b0565b610abb565b600254610123906001600160a01b031681565b61019b600081565b610176610242366004611098565b610ae4565b6101766102553660046110b0565b610b4d565b61019b60008051602061137c83398151915281565b61017661027d366004611060565b610b73565b60006001600160e01b03198216637965db0b60e01b14806102b357506301ffc9a760e01b6001600160e01b03198316145b92915050565b6102d160008051602061137c83398151915233610abb565b6103345760405162461bcd60e51b815260206004820152602960248201527f63616c6c657220646f6573206e6f742068617665207065726d697373696f6e20604482015268746f207265766f6b6560b81b60648201526084015b60405180910390fd5b60408051808201825260088152677265766f6b65642160c01b6020820152600154915163288778ef60e11b815290916001600160a01b03169063510ef1de9061038390859085906004016112b2565b600060405180830381600087803b15801561039d57600080fd5b505af11580156103b1573d6000803e3d6000fd5b50506001546040516331a9108f60e11b815260048101869052600093506001600160a01b039091169150636352211e90602401602060405180830381600087803b1580156103fe57600080fd5b505af1158015610412573d6000803e3d6000fd5b505050506040513d601f19601f82011682018060405250810190610436919061107c565b905061048f604051806040016040528060128152602001713a37b5b2b7103932bb37b5b2b2103337b91d60711b81525082604051806040016040528060098152602001681010103a37b5b2b71d60b91b81525086610c34565b806001600160a01b03167f6601496808769e9fdbdcf0fbf791af78bc138fd326aa3af5dfa3f579bd59a5d1846040516104ca91815260200190565b60405180910390a2505050565b6104ef60008051602061137c83398151915233610abb565b61050b5760405162461bcd60e51b815260040161032b90611265565b600280546001600160a01b0319166001600160a01b03831690811790915560405133907f366082afbf099912856b8a320bfecf2b25d4b1e0c7de7a8e1697be2267cd11d490600090a350565b6000828152602081905260409020600101546105738133610c83565b61057d8383610ce7565b505050565b6003546002546040516370a0823160e01b81526001600160a01b0384811660048301526000939216906370a082319060240160206040518083038186803b1580156105cc57600080fd5b505afa1580156105e0573d6000803e3d6000fd5b505050506040513d601f19601f820116820180604052508101906106049190611107565b1015801561068e57506001546040516370a0823160e01b81526001600160a01b03848116600483015260009216906370a082319060240160206040518083038186803b15801561065357600080fd5b505afa158015610667573d6000803e3d6000fd5b505050506040513d601f19601f8201168201806040525081019061068b9190611107565b10155b156106da576106d26040518060400160405280601b81526020017f736561736f6e20706173732076616c69646174656420666f723a20000000000081525083610d6b565b506001919050565b6107196040518060400160405280601981526020017f736561736f6e207061737320696e76616c696420666f723a200000000000000081525083610d6b565b506000919050565b6001600160a01b03811633146107915760405162461bcd60e51b815260206004820152602f60248201527f416363657373436f6e74726f6c3a2063616e206f6e6c792072656e6f756e636560448201526e103937b632b9903337b91039b2b63360891b606482015260840161032b565b61079b8282610db0565b5050565b6003546002546040516370a0823160e01b81523360048201526001600160a01b03909116906370a082319060240160206040518083038186803b1580156107e557600080fd5b505afa1580156107f9573d6000803e3d6000fd5b505050506040513d601f19601f8201168201806040525081019061081d9190611107565b101580156108a357506001546040516370a0823160e01b81523360048201526001600160a01b03909116906370a082319060240160206040518083038186803b15801561086957600080fd5b505afa15801561087d573d6000803e3d6000fd5b505050506040513d601f19601f820116820180604052508101906108a19190611107565b155b61090e5760405162461bcd60e51b815260206004820152603660248201527f596f7520646f6e2774206d6565742074686520726571756972656d656e747320604482015275746f20636c61696d206120736561736f6e207061737360501b606482015260840161032b565b6002546040516370a0823160e01b81523360048201526000916001600160a01b0316906370a082319060240160206040518083038186803b15801561095257600080fd5b505afa158015610966573d6000803e3d6000fd5b505050506040513d601f19601f8201168201806040525081019061098a9190611107565b90506109cb6040518060400160405280601981526020017f6d73672e73656e64657220746f6b656e42616c616e6365203d0000000000000081525082610e15565b6001546040516340d097c360e01b81523360048201526000916001600160a01b0316906340d097c390602401602060405180830381600087803b158015610a1157600080fd5b505af1158015610a25573d6000803e3d6000fd5b505050506040513d601f19601f82011682018060405250810190610a499190611107565b604080518281526020810185905291925033917f2821d1a27423d5750305cd745ca79057096385db5e8a9126e2ee850aa8cd6049910160405180910390a261079b604051806040016040528060128152602001713a37b5b2b71031b630b4b6b2b2103337b91d60711b81525082610e15565b6000918252602082815260408084206001600160a01b0393909316845291905290205460ff1690565b610afc60008051602061137c83398151915233610abb565b610b185760405162461bcd60e51b815260040161032b90611265565b6003819055604051819033907f0ca146f7e1b3cd702734bb3517d67d15451a9a19ae98602fedf14b352e216a8090600090a350565b600082815260208190526040902060010154610b698133610c83565b61057d8383610db0565b610b8b60008051602061137c83398151915233610abb565b610be85760405162461bcd60e51b815260206004820152602860248201527f63616c6c657220646f65736e27742068617665207065726d697373696f6e21206044820152676e6175676874792160c01b606482015260840161032b565b600180546001600160a01b0319166001600160a01b03831690811790915560405133907f5913d7c6517eea41083539dff04aa7748c6b220167ad155e1333646b5eada8e190600090a350565b610c7d84848484604051602401610c4e94939291906111fd565b60408051601f198184030181529190526020810180516001600160e01b0316638f624be960e01b179052610e56565b50505050565b610c8d8282610abb565b61079b57610ca5816001600160a01b03166014610e77565b610cb0836020610e77565b604051602001610cc192919061114b565b60408051601f198184030181529082905262461bcd60e51b825261032b916004016111c0565b610cf18282610abb565b61079b576000828152602081815260408083206001600160a01b03851684529091529020805460ff19166001179055610d273390565b6001600160a01b0316816001600160a01b0316837f2f8788117e7eff1d82e926ec794901d17c78024a50270940304540a733656f0d60405160405180910390a45050565b61079b8282604051602401610d819291906111d3565b60408051601f198184030181529190526020810180516001600160e01b031663319af33360e01b179052610e56565b610dba8282610abb565b1561079b576000828152602081815260408083206001600160a01b0385168085529252808320805460ff1916905551339285917ff6391f5c32d9c69d2a47ea670b442974b53935d1edc7fd64eb21e047a839171b9190a45050565b61079b8282604051602401610e2b929190611243565b60408051601f198184030181529190526020810180516001600160e01b03166309710a9d60e41b1790525b80516a636f6e736f6c652e6c6f67602083016000808483855afa5050505050565b60606000610e868360026112eb565b610e919060026112d3565b67ffffffffffffffff811115610eb757634e487b7160e01b600052604160045260246000fd5b6040519080825280601f01601f191660200182016040528015610ee1576020820181803683370190505b509050600360fc1b81600081518110610f0a57634e487b7160e01b600052603260045260246000fd5b60200101906001600160f81b031916908160001a905350600f60fb1b81600181518110610f4757634e487b7160e01b600052603260045260246000fd5b60200101906001600160f81b031916908160001a9053506000610f6b8460026112eb565b610f769060016112d3565b90505b600181111561100a576f181899199a1a9b1b9c1cb0b131b232b360811b85600f1660108110610fb857634e487b7160e01b600052603260045260246000fd5b1a60f81b828281518110610fdc57634e487b7160e01b600052603260045260246000fd5b60200101906001600160f81b031916908160001a90535060049490941c9361100381611336565b9050610f79565b5083156110595760405162461bcd60e51b815260206004820181905260248201527f537472696e67733a20686578206c656e67746820696e73756666696369656e74604482015260640161032b565b9392505050565b600060208284031215611071578081fd5b813561105981611363565b60006020828403121561108d578081fd5b815161105981611363565b6000602082840312156110a9578081fd5b5035919050565b600080604083850312156110c2578081fd5b8235915060208301356110d481611363565b809150509250929050565b6000602082840312156110f0578081fd5b81356001600160e01b031981168114611059578182fd5b600060208284031215611118578081fd5b5051919050565b6000815180845261113781602086016020860161130a565b601f01601f19169290920160200192915050565b7f416363657373436f6e74726f6c3a206163636f756e742000000000000000000081526000835161118381601785016020880161130a565b7001034b99036b4b9b9b4b733903937b6329607d1b60179184019182015283516111b481602884016020880161130a565b01602801949350505050565b602081526000611059602083018461111f565b6040815260006111e6604083018561111f565b905060018060a01b03831660208301529392505050565b608081526000611210608083018761111f565b6001600160a01b03861660208401528281036040840152611231818661111f565b91505082606083015295945050505050565b604081526000611256604083018561111f565b90508260208301529392505050565b6020808252602d908201527f43616c6c657220646f6573206e6f742068617665207065726d697373696f6e2160408201526c207568206f68207374696e6b7960981b606082015260800190565b8281526040602082015260006112cb604083018461111f565b949350505050565b600082198211156112e6576112e661134d565b500190565b60008160001904831182151516156113055761130561134d565b500290565b60005b8381101561132557818101518382015260200161130d565b83811115610c7d5750506000910152565b6000816113455761134561134d565b506000190190565b634e487b7160e01b600052601160045260246000fd5b6001600160a01b038116811461137857600080fd5b5056feb19546dff01e856fb3f010c267a7b1c60363cf8a4664e21cc89c26224620214ea26469706673582212201c7a1b74812999a13ce3773ecd236f3130321782703700d66648ef737c2a7aa164736f6c63430008040033",
  "devdoc": {
    "kind": "dev",
    "methods": {
      "claim()": {
        "details": "this function needs work. metadata will need to come in here if it's generated on front end (ipfs hash passed in a string)."
      },
      "constructor": {
        "details": "not sure about accesscontrol yet? is this the  best solution?",
        "params": {
          "_tokenAddress": "ERC-20 contract used for tokengate",
          "owner": "The DAO multisig address to  control the contract"
        }
      },
      "getRoleAdmin(bytes32)": {
        "details": "Returns the admin role that controls `role`. See {grantRole} and {revokeRole}. To change a role's admin, use {_setRoleAdmin}."
      },
      "grantRole(bytes32,address)": {
        "details": "Grants `role` to `account`. If `account` had not been already granted `role`, emits a {RoleGranted} event. Requirements: - the caller must have ``role``'s admin role."
      },
      "hasRole(bytes32,address)": {
        "details": "Returns `true` if `account` has been granted `role`."
      },
      "renounceRole(bytes32,address)": {
        "details": "Revokes `role` from the calling account. Roles are often managed via {grantRole} and {revokeRole}: this function's purpose is to provide a mechanism for accounts to lose their privileges if they are compromised (such as when a trusted device is misplaced). If the calling account had been granted `role`, emits a {RoleRevoked} event. Requirements: - the caller must be `account`."
      },
      "revokeRole(bytes32,address)": {
        "details": "Revokes `role` from `account`. If `account` had been granted `role`, emits a {RoleRevoked} event. Requirements: - the caller must have ``role``'s admin role."
      },
      "setSeasonPass(address)": {
        "details": "public function but restricted to owner only role",
        "params": {
          "_seasonPassAddress": "address var for inputing contract"
        }
      },
      "setTokenAddress(address)": {
        "details": "function is public but accesscontrol restricted to owner",
        "params": {
          "_tokenAddress": "input param for ERC-20 contract address"
        }
      },
      "setTokenGate(uint256)": {
        "details": "maybe should be decimal based? function is public but restricted to owner only via accesscontrol",
        "params": {
          "_tokenGate": "uint256 value for token gate amount (e.g '55')"
        }
      },
      "supportsInterface(bytes4)": {
        "details": "See {IERC165-supportsInterface}."
      }
    },
    "version": 1
  },
  "userdoc": {
    "events": {
      "tokenAddressUpdated(address,address)": {
        "notice": "Events"
      }
    },
    "kind": "user",
    "methods": {
      "OWNER_ROLE()": {
        "notice": "Role identifiers"
      },
      "claim()": {
        "notice": "claim() is a public function that is the entry point to the season pass. function will be called by front-end interfaces to issue new seasonpass nft's to token holders/DAO members. it requires the user to hold the tokengate amount of tokens to transact."
      },
      "constructor": {
        "notice": "constructor sets owner permission on deployment  and sets child contract and token gate amount"
      },
      "hasValidSeasonPass(address)": {
        "notice": "public accessible function to see if input address has a valid season pass , if it doesn't, we'll  do stuff? (can be modified, right now we just return boolean)"
      },
      "revoke(uint256)": {
        "notice": "function claim is called to revoke a season pass from a member  not meeting token gate requirements. this can be implemented as a token, burn, transfer, or change of metadata. not sure how we want to handle this yet?"
      },
      "seasonPassAddress()": {
        "notice": "Public variables"
      },
      "setSeasonPass(address)": {
        "notice": "setter function to update contract address for seasonpass ERC-721 "
      },
      "setTokenAddress(address)": {
        "notice": "setter function for updating the token gate ERC-20 contract address"
      },
      "setTokenGate(uint256)": {
        "notice": "setter function for updating token gate amount (numerical value)"
      }
    },
    "version": 1
  },
  "storageLayout": {
    "storage": [
      {
        "astId": 24,
        "contract": "contracts/SeasonPassController.sol:SeasonPassController",
        "label": "_roles",
        "offset": 0,
        "slot": "0",
        "type": "t_mapping(t_bytes32,t_struct(RoleData)19_storage)"
      },
      {
        "astId": 4074,
        "contract": "contracts/SeasonPassController.sol:SeasonPassController",
        "label": "seasonPassAddress",
        "offset": 0,
        "slot": "1",
        "type": "t_address"
      },
      {
        "astId": 4076,
        "contract": "contracts/SeasonPassController.sol:SeasonPassController",
        "label": "tokenAddress",
        "offset": 0,
        "slot": "2",
        "type": "t_address"
      },
      {
        "astId": 4078,
        "contract": "contracts/SeasonPassController.sol:SeasonPassController",
        "label": "tokenGate",
        "offset": 0,
        "slot": "3",
        "type": "t_uint256"
      }
    ],
    "types": {
      "t_address": {
        "encoding": "inplace",
        "label": "address",
        "numberOfBytes": "20"
      },
      "t_bool": {
        "encoding": "inplace",
        "label": "bool",
        "numberOfBytes": "1"
      },
      "t_bytes32": {
        "encoding": "inplace",
        "label": "bytes32",
        "numberOfBytes": "32"
      },
      "t_mapping(t_address,t_bool)": {
        "encoding": "mapping",
        "key": "t_address",
        "label": "mapping(address => bool)",
        "numberOfBytes": "32",
        "value": "t_bool"
      },
      "t_mapping(t_bytes32,t_struct(RoleData)19_storage)": {
        "encoding": "mapping",
        "key": "t_bytes32",
        "label": "mapping(bytes32 => struct AccessControl.RoleData)",
        "numberOfBytes": "32",
        "value": "t_struct(RoleData)19_storage"
      },
      "t_struct(RoleData)19_storage": {
        "encoding": "inplace",
        "label": "struct AccessControl.RoleData",
        "members": [
          {
            "astId": 16,
            "contract": "contracts/SeasonPassController.sol:SeasonPassController",
            "label": "members",
            "offset": 0,
            "slot": "0",
            "type": "t_mapping(t_address,t_bool)"
          },
          {
            "astId": 18,
            "contract": "contracts/SeasonPassController.sol:SeasonPassController",
            "label": "adminRole",
            "offset": 0,
            "slot": "1",
            "type": "t_bytes32"
          }
        ],
        "numberOfBytes": "64"
      },
      "t_uint256": {
        "encoding": "inplace",
        "label": "uint256",
        "numberOfBytes": "32"
      }
    }
  }
}