{
  "address": "0x22bdD4EC56682951BD86b32fa7Bb9F5E3214F2e6",
  "abi": [
    {
      "inputs": [
        {
          "internalType": "address",
          "name": "_controllerAddress",
          "type": "address"
        }
      ],
      "stateMutability": "nonpayable",
      "type": "constructor"
    },
    {
      "anonymous": false,
      "inputs": [
        {
          "indexed": true,
          "internalType": "address",
          "name": "owner",
          "type": "address"
        },
        {
          "indexed": true,
          "internalType": "address",
          "name": "approved",
          "type": "address"
        },
        {
          "indexed": true,
          "internalType": "uint256",
          "name": "tokenId",
          "type": "uint256"
        }
      ],
      "name": "Approval",
      "type": "event"
    },
    {
      "anonymous": false,
      "inputs": [
        {
          "indexed": true,
          "internalType": "address",
          "name": "owner",
          "type": "address"
        },
        {
          "indexed": true,
          "internalType": "address",
          "name": "operator",
          "type": "address"
        },
        {
          "indexed": false,
          "internalType": "bool",
          "name": "approved",
          "type": "bool"
        }
      ],
      "name": "ApprovalForAll",
      "type": "event"
    },
    {
      "anonymous": false,
      "inputs": [
        {
          "indexed": true,
          "internalType": "address",
          "name": "previousOwner",
          "type": "address"
        },
        {
          "indexed": true,
          "internalType": "address",
          "name": "newOwner",
          "type": "address"
        }
      ],
      "name": "OwnershipTransferred",
      "type": "event"
    },
    {
      "anonymous": false,
      "inputs": [
        {
          "indexed": true,
          "internalType": "uint256",
          "name": "tokenId",
          "type": "uint256"
        },
        {
          "indexed": true,
          "internalType": "string",
          "name": "metadataURI",
          "type": "string"
        }
      ],
      "name": "SPTokenMetadataChanged",
      "type": "event"
    },
    {
      "anonymous": false,
      "inputs": [
        {
          "indexed": true,
          "internalType": "address",
          "name": "member",
          "type": "address"
        },
        {
          "indexed": true,
          "internalType": "uint256",
          "name": "tokenId",
          "type": "uint256"
        }
      ],
      "name": "SeasonPassMinted",
      "type": "event"
    },
    {
      "anonymous": false,
      "inputs": [
        {
          "indexed": true,
          "internalType": "address",
          "name": "member",
          "type": "address"
        },
        {
          "indexed": true,
          "internalType": "uint256",
          "name": "tokenId",
          "type": "uint256"
        }
      ],
      "name": "SeasonPassRevoked",
      "type": "event"
    },
    {
      "anonymous": false,
      "inputs": [
        {
          "indexed": true,
          "internalType": "address",
          "name": "from",
          "type": "address"
        },
        {
          "indexed": true,
          "internalType": "address",
          "name": "to",
          "type": "address"
        },
        {
          "indexed": true,
          "internalType": "uint256",
          "name": "tokenId",
          "type": "uint256"
        }
      ],
      "name": "Transfer",
      "type": "event"
    },
    {
      "inputs": [
        {
          "internalType": "address",
          "name": "to",
          "type": "address"
        },
        {
          "internalType": "uint256",
          "name": "tokenId",
          "type": "uint256"
        }
      ],
      "name": "approve",
      "outputs": [],
      "stateMutability": "nonpayable",
      "type": "function"
    },
    {
      "inputs": [
        {
          "internalType": "address",
          "name": "owner",
          "type": "address"
        }
      ],
      "name": "balanceOf",
      "outputs": [
        {
          "internalType": "uint256",
          "name": "",
          "type": "uint256"
        }
      ],
      "stateMutability": "view",
      "type": "function"
    },
    {
      "inputs": [
        {
          "internalType": "uint256",
          "name": "tokenId",
          "type": "uint256"
        }
      ],
      "name": "getApproved",
      "outputs": [
        {
          "internalType": "address",
          "name": "",
          "type": "address"
        }
      ],
      "stateMutability": "view",
      "type": "function"
    },
    {
      "inputs": [
        {
          "internalType": "address",
          "name": "owner",
          "type": "address"
        },
        {
          "internalType": "address",
          "name": "operator",
          "type": "address"
        }
      ],
      "name": "isApprovedForAll",
      "outputs": [
        {
          "internalType": "bool",
          "name": "",
          "type": "bool"
        }
      ],
      "stateMutability": "view",
      "type": "function"
    },
    {
      "inputs": [],
      "name": "name",
      "outputs": [
        {
          "internalType": "string",
          "name": "",
          "type": "string"
        }
      ],
      "stateMutability": "view",
      "type": "function"
    },
    {
      "inputs": [],
      "name": "owner",
      "outputs": [
        {
          "internalType": "address",
          "name": "",
          "type": "address"
        }
      ],
      "stateMutability": "view",
      "type": "function"
    },
    {
      "inputs": [
        {
          "internalType": "uint256",
          "name": "tokenId",
          "type": "uint256"
        }
      ],
      "name": "ownerOf",
      "outputs": [
        {
          "internalType": "address",
          "name": "",
          "type": "address"
        }
      ],
      "stateMutability": "view",
      "type": "function"
    },
    {
      "inputs": [],
      "name": "renounceOwnership",
      "outputs": [],
      "stateMutability": "nonpayable",
      "type": "function"
    },
    {
      "inputs": [
        {
          "internalType": "address",
          "name": "to",
          "type": "address"
        }
      ],
      "name": "safeMint",
      "outputs": [
        {
          "internalType": "uint256",
          "name": "",
          "type": "uint256"
        }
      ],
      "stateMutability": "nonpayable",
      "type": "function"
    },
    {
      "inputs": [
        {
          "internalType": "address",
          "name": "from",
          "type": "address"
        },
        {
          "internalType": "address",
          "name": "to",
          "type": "address"
        },
        {
          "internalType": "uint256",
          "name": "tokenId",
          "type": "uint256"
        }
      ],
      "name": "safeTransferFrom",
      "outputs": [],
      "stateMutability": "nonpayable",
      "type": "function"
    },
    {
      "inputs": [
        {
          "internalType": "address",
          "name": "from",
          "type": "address"
        },
        {
          "internalType": "address",
          "name": "to",
          "type": "address"
        },
        {
          "internalType": "uint256",
          "name": "tokenId",
          "type": "uint256"
        },
        {
          "internalType": "bytes",
          "name": "_data",
          "type": "bytes"
        }
      ],
      "name": "safeTransferFrom",
      "outputs": [],
      "stateMutability": "nonpayable",
      "type": "function"
    },
    {
      "inputs": [
        {
          "internalType": "address",
          "name": "operator",
          "type": "address"
        },
        {
          "internalType": "bool",
          "name": "approved",
          "type": "bool"
        }
      ],
      "name": "setApprovalForAll",
      "outputs": [],
      "stateMutability": "nonpayable",
      "type": "function"
    },
    {
      "inputs": [
        {
          "internalType": "uint256",
          "name": "tokenId",
          "type": "uint256"
        },
        {
          "internalType": "string",
          "name": "metadataURI",
          "type": "string"
        }
      ],
      "name": "setTokenMetadata",
      "outputs": [],
      "stateMutability": "nonpayable",
      "type": "function"
    },
    {
      "inputs": [
        {
          "internalType": "bytes4",
          "name": "interfaceId",
          "type": "bytes4"
        }
      ],
      "name": "supportsInterface",
      "outputs": [
        {
          "internalType": "bool",
          "name": "",
          "type": "bool"
        }
      ],
      "stateMutability": "view",
      "type": "function"
    },
    {
      "inputs": [],
      "name": "symbol",
      "outputs": [
        {
          "internalType": "string",
          "name": "",
          "type": "string"
        }
      ],
      "stateMutability": "view",
      "type": "function"
    },
    {
      "inputs": [
        {
          "internalType": "uint256",
          "name": "index",
          "type": "uint256"
        }
      ],
      "name": "tokenByIndex",
      "outputs": [
        {
          "internalType": "uint256",
          "name": "",
          "type": "uint256"
        }
      ],
      "stateMutability": "view",
      "type": "function"
    },
    {
      "inputs": [
        {
          "internalType": "address",
          "name": "owner",
          "type": "address"
        },
        {
          "internalType": "uint256",
          "name": "index",
          "type": "uint256"
        }
      ],
      "name": "tokenOfOwnerByIndex",
      "outputs": [
        {
          "internalType": "uint256",
          "name": "",
          "type": "uint256"
        }
      ],
      "stateMutability": "view",
      "type": "function"
    },
    {
      "inputs": [
        {
          "internalType": "uint256",
          "name": "tokenId",
          "type": "uint256"
        }
      ],
      "name": "tokenURI",
      "outputs": [
        {
          "internalType": "string",
          "name": "",
          "type": "string"
        }
      ],
      "stateMutability": "view",
      "type": "function"
    },
    {
      "inputs": [],
      "name": "totalSupply",
      "outputs": [
        {
          "internalType": "uint256",
          "name": "",
          "type": "uint256"
        }
      ],
      "stateMutability": "view",
      "type": "function"
    },
    {
      "inputs": [
        {
          "internalType": "address",
          "name": "from",
          "type": "address"
        },
        {
          "internalType": "address",
          "name": "to",
          "type": "address"
        },
        {
          "internalType": "uint256",
          "name": "tokenId",
          "type": "uint256"
        }
      ],
      "name": "transferFrom",
      "outputs": [],
      "stateMutability": "nonpayable",
      "type": "function"
    },
    {
      "inputs": [
        {
          "internalType": "address",
          "name": "newOwner",
          "type": "address"
        }
      ],
      "name": "transferOwnership",
      "outputs": [],
      "stateMutability": "nonpayable",
      "type": "function"
    }
  ],
  "transactionHash": "0x750d1e39a42574178d0b1ade1646447bdd879b972c2d20611f72ff7595c9fb18",
  "args": [
    "0x74Ffa8c7db6696aec35Be84eb69aaCEf570db3C7"
  ],
  "solcInputHash": "a8e801085884ebc8ce2767620418ea8a",
  "bytecode": "0x60806040523480156200001157600080fd5b5060405162003f6838038062003f688339818101604052810190620000379190620003e4565b6040518060400160405280600a81526020017f536561736f6e50617373000000000000000000000000000000000000000000008152506040518060400160405280600481526020017f53503030000000000000000000000000000000000000000000000000000000008152508160009080519060200190620000bb9291906200031d565b508060019080519060200190620000d49291906200031d565b505050620000f7620000eb6200010f60201b60201c565b6200011760201b60201c565b6200010881620001dd60201b60201c565b50620005de565b600033905090565b6000600b60009054906101000a900473ffffffffffffffffffffffffffffffffffffffff16905081600b60006101000a81548173ffffffffffffffffffffffffffffffffffffffff021916908373ffffffffffffffffffffffffffffffffffffffff1602179055508173ffffffffffffffffffffffffffffffffffffffff168173ffffffffffffffffffffffffffffffffffffffff167f8be0079c531659141344cd1fd0a4f28419497f9722a3daafe3b4186f6b6457e060405160405180910390a35050565b620001ed6200010f60201b60201c565b73ffffffffffffffffffffffffffffffffffffffff1662000213620002f360201b60201c565b73ffffffffffffffffffffffffffffffffffffffff16146200026c576040517f08c379a0000000000000000000000000000000000000000000000000000000008152600401620002639062000480565b60405180910390fd5b600073ffffffffffffffffffffffffffffffffffffffff168173ffffffffffffffffffffffffffffffffffffffff161415620002df576040517f08c379a0000000000000000000000000000000000000000000000000000000008152600401620002d6906200045e565b60405180910390fd5b620002f0816200011760201b60201c565b50565b6000600b60009054906101000a900473ffffffffffffffffffffffffffffffffffffffff16905090565b8280546200032b90620004e7565b90600052602060002090601f0160209004810192826200034f57600085556200039b565b82601f106200036a57805160ff19168380011785556200039b565b828001600101855582156200039b579182015b828111156200039a5782518255916020019190600101906200037d565b5b509050620003aa9190620003ae565b5090565b5b80821115620003c9576000816000905550600101620003af565b5090565b600081519050620003de81620005c4565b92915050565b600060208284031215620003f757600080fd5b60006200040784828501620003cd565b91505092915050565b60006200041f602683620004a2565b91506200042c826200054c565b604082019050919050565b600062000446602083620004a2565b915062000453826200059b565b602082019050919050565b60006020820190508181036000830152620004798162000410565b9050919050565b600060208201905081810360008301526200049b8162000437565b9050919050565b600082825260208201905092915050565b6000620004c082620004c7565b9050919050565b600073ffffffffffffffffffffffffffffffffffffffff82169050919050565b600060028204905060018216806200050057607f821691505b602082108114156200051757620005166200051d565b5b50919050565b7f4e487b7100000000000000000000000000000000000000000000000000000000600052602260045260246000fd5b7f4f776e61626c653a206e6577206f776e657220697320746865207a65726f206160008201527f6464726573730000000000000000000000000000000000000000000000000000602082015250565b7f4f776e61626c653a2063616c6c6572206973206e6f7420746865206f776e6572600082015250565b620005cf81620004b3565b8114620005db57600080fd5b50565b61397a80620005ee6000396000f3fe608060405234801561001057600080fd5b50600436106101375760003560e01c8063510ef1de116100b857806395d89b411161007c57806395d89b4114610360578063a22cb4651461037e578063b88d4fde1461039a578063c87b56dd146103b6578063e985e9c5146103e6578063f2fde38b1461041657610137565b8063510ef1de146102bc5780636352211e146102d857806370a0823114610308578063715018a6146103385780638da5cb5b1461034257610137565b806323b872dd116100ff57806323b872dd146101f45780632f745c591461021057806340d097c31461024057806342842e0e146102705780634f6ccce71461028c57610137565b806301ffc9a71461013c57806306fdde031461016c578063081812fc1461018a578063095ea7b3146101ba57806318160ddd146101d6575b600080fd5b6101566004803603810190610151919061279a565b610432565b6040516101639190612c97565b60405180910390f35b610174610444565b6040516101819190612cb2565b60405180910390f35b6101a4600480360381019061019f91906127ec565b6104d6565b6040516101b19190612c30565b60405180910390f35b6101d460048036038101906101cf919061275e565b61055b565b005b6101de610673565b6040516101eb9190612f54565b60405180910390f35b61020e60048036038101906102099190612658565b610680565b005b61022a6004803603810190610225919061275e565b6106e0565b6040516102379190612f54565b60405180910390f35b61025a600480360381019061025591906125f3565b610785565b6040516102679190612f54565b60405180910390f35b61028a60048036038101906102859190612658565b610884565b005b6102a660048036038101906102a191906127ec565b6108a4565b6040516102b39190612f54565b60405180910390f35b6102d660048036038101906102d19190612815565b61093b565b005b6102f260048036038101906102ed91906127ec565b61098c565b6040516102ff9190612c30565b60405180910390f35b610322600480360381019061031d91906125f3565b610a3e565b60405161032f9190612f54565b60405180910390f35b610340610af6565b005b61034a610b7e565b6040516103579190612c30565b60405180910390f35b610368610ba8565b6040516103759190612cb2565b60405180910390f35b61039860048036038101906103939190612722565b610c3a565b005b6103b460048036038101906103af91906126a7565b610dbb565b005b6103d060048036038101906103cb91906127ec565b610e1d565b6040516103dd9190612cb2565b60405180910390f35b61040060048036038101906103fb919061261c565b610e2f565b60405161040d9190612c97565b60405180910390f35b610430600480360381019061042b91906125f3565b610ec3565b005b600061043d82610fbb565b9050919050565b606060008054610453906131aa565b80601f016020809104026020016040519081016040528092919081815260200182805461047f906131aa565b80156104cc5780601f106104a1576101008083540402835291602001916104cc565b820191906000526020600020905b8154815290600101906020018083116104af57829003601f168201915b5050505050905090565b60006104e182611035565b610520576040517f08c379a000000000000000000000000000000000000000000000000000000000815260040161051790612e74565b60405180910390fd5b6004600083815260200190815260200160002060009054906101000a900473ffffffffffffffffffffffffffffffffffffffff169050919050565b60006105668261098c565b90508073ffffffffffffffffffffffffffffffffffffffff168373ffffffffffffffffffffffffffffffffffffffff1614156105d7576040517f08c379a00000000000000000000000000000000000000000000000000000000081526004016105ce90612ef4565b60405180910390fd5b8073ffffffffffffffffffffffffffffffffffffffff166105f66110a1565b73ffffffffffffffffffffffffffffffffffffffff16148061062557506106248161061f6110a1565b610e2f565b5b610664576040517f08c379a000000000000000000000000000000000000000000000000000000000815260040161065b90612db4565b60405180910390fd5b61066e83836110a9565b505050565b6000600880549050905090565b61069161068b6110a1565b82611162565b6106d0576040517f08c379a00000000000000000000000000000000000000000000000000000000081526004016106c790612f14565b60405180910390fd5b6106db838383611240565b505050565b60006106eb83610a3e565b821061072c576040517f08c379a000000000000000000000000000000000000000000000000000000000815260040161072390612cd4565b60405180910390fd5b600660008473ffffffffffffffffffffffffffffffffffffffff1673ffffffffffffffffffffffffffffffffffffffff168152602001908152602001600020600083815260200190815260200160002054905092915050565b600061078f6110a1565b73ffffffffffffffffffffffffffffffffffffffff166107ad610b7e565b73ffffffffffffffffffffffffffffffffffffffff1614610803576040517f08c379a00000000000000000000000000000000000000000000000000000000081526004016107fa90612e94565b60405180910390fd5b600061080f600c61149c565b90506108248361081f600c61149c565b6114aa565b61082e600c61149c565b8373ffffffffffffffffffffffffffffffffffffffff167ff8064ead01f281d7b4f7d51116c9141b59f2d31de7df86092bbd465eb48ad04a60405160405180910390a361087b600c6114c8565b80915050919050565b61089f83838360405180602001604052806000815250610dbb565b505050565b60006108ae610673565b82106108ef576040517f08c379a00000000000000000000000000000000000000000000000000000000081526004016108e690612f34565b60405180910390fd5b60088281548110610929577f4e487b7100000000000000000000000000000000000000000000000000000000600052603260045260246000fd5b90600052602060002001549050919050565b61094582826114de565b806040516109539190612bf5565b6040518091039020827fedbbd91f5154eab1b049224d93cc635e23d22fe8d6f570f51f134772a6f5c90860405160405180910390a35050565b6000806002600084815260200190815260200160002060009054906101000a900473ffffffffffffffffffffffffffffffffffffffff169050600073ffffffffffffffffffffffffffffffffffffffff168173ffffffffffffffffffffffffffffffffffffffff161415610a35576040517f08c379a0000000000000000000000000000000000000000000000000000000008152600401610a2c90612df4565b60405180910390fd5b80915050919050565b60008073ffffffffffffffffffffffffffffffffffffffff168273ffffffffffffffffffffffffffffffffffffffff161415610aaf576040517f08c379a0000000000000000000000000000000000000000000000000000000008152600401610aa690612dd4565b60405180910390fd5b600360008373ffffffffffffffffffffffffffffffffffffffff1673ffffffffffffffffffffffffffffffffffffffff168152602001908152602001600020549050919050565b610afe6110a1565b73ffffffffffffffffffffffffffffffffffffffff16610b1c610b7e565b73ffffffffffffffffffffffffffffffffffffffff1614610b72576040517f08c379a0000000000000000000000000000000000000000000000000000000008152600401610b6990612e94565b60405180910390fd5b610b7c6000611552565b565b6000600b60009054906101000a900473ffffffffffffffffffffffffffffffffffffffff16905090565b606060018054610bb7906131aa565b80601f0160208091040260200160405190810160405280929190818152602001828054610be3906131aa565b8015610c305780601f10610c0557610100808354040283529160200191610c30565b820191906000526020600020905b815481529060010190602001808311610c1357829003601f168201915b5050505050905090565b610c426110a1565b73ffffffffffffffffffffffffffffffffffffffff168273ffffffffffffffffffffffffffffffffffffffff161415610cb0576040517f08c379a0000000000000000000000000000000000000000000000000000000008152600401610ca790612d74565b60405180910390fd5b8060056000610cbd6110a1565b73ffffffffffffffffffffffffffffffffffffffff1673ffffffffffffffffffffffffffffffffffffffff16815260200190815260200160002060008473ffffffffffffffffffffffffffffffffffffffff1673ffffffffffffffffffffffffffffffffffffffff16815260200190815260200160002060006101000a81548160ff0219169083151502179055508173ffffffffffffffffffffffffffffffffffffffff16610d6a6110a1565b73ffffffffffffffffffffffffffffffffffffffff167f17307eab39ab6107e8899845ad3d59bd9653f200f220920489ca2b5937696c3183604051610daf9190612c97565b60405180910390a35050565b610dcc610dc66110a1565b83611162565b610e0b576040517f08c379a0000000000000000000000000000000000000000000000000000000008152600401610e0290612f14565b60405180910390fd5b610e1784848484611618565b50505050565b6060610e2882611674565b9050919050565b6000600560008473ffffffffffffffffffffffffffffffffffffffff1673ffffffffffffffffffffffffffffffffffffffff16815260200190815260200160002060008373ffffffffffffffffffffffffffffffffffffffff1673ffffffffffffffffffffffffffffffffffffffff16815260200190815260200160002060009054906101000a900460ff16905092915050565b610ecb6110a1565b73ffffffffffffffffffffffffffffffffffffffff16610ee9610b7e565b73ffffffffffffffffffffffffffffffffffffffff1614610f3f576040517f08c379a0000000000000000000000000000000000000000000000000000000008152600401610f3690612e94565b60405180910390fd5b600073ffffffffffffffffffffffffffffffffffffffff168173ffffffffffffffffffffffffffffffffffffffff161415610faf576040517f08c379a0000000000000000000000000000000000000000000000000000000008152600401610fa690612d14565b60405180910390fd5b610fb881611552565b50565b60007f780e9d63000000000000000000000000000000000000000000000000000000007bffffffffffffffffffffffffffffffffffffffffffffffffffffffff1916827bffffffffffffffffffffffffffffffffffffffffffffffffffffffff1916148061102e575061102d826117c6565b5b9050919050565b60008073ffffffffffffffffffffffffffffffffffffffff166002600084815260200190815260200160002060009054906101000a900473ffffffffffffffffffffffffffffffffffffffff1673ffffffffffffffffffffffffffffffffffffffff1614159050919050565b600033905090565b816004600083815260200190815260200160002060006101000a81548173ffffffffffffffffffffffffffffffffffffffff021916908373ffffffffffffffffffffffffffffffffffffffff160217905550808273ffffffffffffffffffffffffffffffffffffffff1661111c8361098c565b73ffffffffffffffffffffffffffffffffffffffff167f8c5be1e5ebec7d5bd14f71427d1e84f3dd0314c0f7b2291e5b200ac8c7c3b92560405160405180910390a45050565b600061116d82611035565b6111ac576040517f08c379a00000000000000000000000000000000000000000000000000000000081526004016111a390612d94565b60405180910390fd5b60006111b78361098c565b90508073ffffffffffffffffffffffffffffffffffffffff168473ffffffffffffffffffffffffffffffffffffffff16148061122657508373ffffffffffffffffffffffffffffffffffffffff1661120e846104d6565b73ffffffffffffffffffffffffffffffffffffffff16145b8061123757506112368185610e2f565b5b91505092915050565b8273ffffffffffffffffffffffffffffffffffffffff166112608261098c565b73ffffffffffffffffffffffffffffffffffffffff16146112b6576040517f08c379a00000000000000000000000000000000000000000000000000000000081526004016112ad90612eb4565b60405180910390fd5b600073ffffffffffffffffffffffffffffffffffffffff168273ffffffffffffffffffffffffffffffffffffffff161415611326576040517f08c379a000000000000000000000000000000000000000000000000000000000815260040161131d90612d54565b60405180910390fd5b6113318383836118a8565b61133c6000826110a9565b6001600360008573ffffffffffffffffffffffffffffffffffffffff1673ffffffffffffffffffffffffffffffffffffffff168152602001908152602001600020600082825461138c91906130c0565b925050819055506001600360008473ffffffffffffffffffffffffffffffffffffffff1673ffffffffffffffffffffffffffffffffffffffff16815260200190815260200160002060008282546113e39190613039565b92505081905550816002600083815260200190815260200160002060006101000a81548173ffffffffffffffffffffffffffffffffffffffff021916908373ffffffffffffffffffffffffffffffffffffffff160217905550808273ffffffffffffffffffffffffffffffffffffffff168473ffffffffffffffffffffffffffffffffffffffff167fddf252ad1be2c89b69c2b068fc378daa952ba7f163c4a11628f55a4df523b3ef60405160405180910390a4505050565b600081600001549050919050565b6114c48282604051806020016040528060008152506118b8565b5050565b6001816000016000828254019250508190555050565b6114e782611035565b611526576040517f08c379a000000000000000000000000000000000000000000000000000000000815260040161151d90612e14565b60405180910390fd5b80600a6000848152602001908152602001600020908051906020019061154d929190612417565b505050565b6000600b60009054906101000a900473ffffffffffffffffffffffffffffffffffffffff16905081600b60006101000a81548173ffffffffffffffffffffffffffffffffffffffff021916908373ffffffffffffffffffffffffffffffffffffffff1602179055508173ffffffffffffffffffffffffffffffffffffffff168173ffffffffffffffffffffffffffffffffffffffff167f8be0079c531659141344cd1fd0a4f28419497f9722a3daafe3b4186f6b6457e060405160405180910390a35050565b611623848484611240565b61162f84848484611913565b61166e576040517f08c379a000000000000000000000000000000000000000000000000000000000815260040161166590612cf4565b60405180910390fd5b50505050565b606061167f82611035565b6116be576040517f08c379a00000000000000000000000000000000000000000000000000000000081526004016116b590612e54565b60405180910390fd5b6000600a600084815260200190815260200160002080546116de906131aa565b80601f016020809104026020016040519081016040528092919081815260200182805461170a906131aa565b80156117575780601f1061172c57610100808354040283529160200191611757565b820191906000526020600020905b81548152906001019060200180831161173a57829003601f168201915b505050505090506000611768611aaa565b905060008151141561177e5781925050506117c1565b6000825111156117b357808260405160200161179b929190612c0c565b604051602081830303815290604052925050506117c1565b6117bc84611ae7565b925050505b919050565b60007f80ac58cd000000000000000000000000000000000000000000000000000000007bffffffffffffffffffffffffffffffffffffffffffffffffffffffff1916827bffffffffffffffffffffffffffffffffffffffffffffffffffffffff1916148061189157507f5b5e139f000000000000000000000000000000000000000000000000000000007bffffffffffffffffffffffffffffffffffffffffffffffffffffffff1916827bffffffffffffffffffffffffffffffffffffffffffffffffffffffff1916145b806118a157506118a082611b8e565b5b9050919050565b6118b3838383611bf8565b505050565b6118c28383611d0c565b6118cf6000848484611913565b61190e576040517f08c379a000000000000000000000000000000000000000000000000000000000815260040161190590612cf4565b60405180910390fd5b505050565b60006119348473ffffffffffffffffffffffffffffffffffffffff16611eda565b15611a9d578373ffffffffffffffffffffffffffffffffffffffff1663150b7a0261195d6110a1565b8786866040518563ffffffff1660e01b815260040161197f9493929190612c4b565b602060405180830381600087803b15801561199957600080fd5b505af19250505080156119ca57506040513d601f19601f820116820180604052508101906119c791906127c3565b60015b611a4d573d80600081146119fa576040519150601f19603f3d011682016040523d82523d6000602084013e6119ff565b606091505b50600081511415611a45576040517f08c379a0000000000000000000000000000000000000000000000000000000008152600401611a3c90612cf4565b60405180910390fd5b805181602001fd5b63150b7a0260e01b7bffffffffffffffffffffffffffffffffffffffffffffffffffffffff1916817bffffffffffffffffffffffffffffffffffffffffffffffffffffffff191614915050611aa2565b600190505b949350505050565b60606040518060400160405280600781526020017f697066733a2f2f00000000000000000000000000000000000000000000000000815250905090565b6060611af282611035565b611b31576040517f08c379a0000000000000000000000000000000000000000000000000000000008152600401611b2890612ed4565b60405180910390fd5b6000611b3b611aaa565b90506000815111611b5b5760405180602001604052806000815250611b86565b80611b6584611eed565b604051602001611b76929190612c0c565b6040516020818303038152906040525b915050919050565b60007f01ffc9a7000000000000000000000000000000000000000000000000000000007bffffffffffffffffffffffffffffffffffffffffffffffffffffffff1916827bffffffffffffffffffffffffffffffffffffffffffffffffffffffff1916149050919050565b611c0383838361209a565b600073ffffffffffffffffffffffffffffffffffffffff168373ffffffffffffffffffffffffffffffffffffffff161415611c4657611c418161209f565b611c85565b8173ffffffffffffffffffffffffffffffffffffffff168373ffffffffffffffffffffffffffffffffffffffff1614611c8457611c8383826120e8565b5b5b600073ffffffffffffffffffffffffffffffffffffffff168273ffffffffffffffffffffffffffffffffffffffff161415611cc857611cc381612255565b611d07565b8273ffffffffffffffffffffffffffffffffffffffff168273ffffffffffffffffffffffffffffffffffffffff1614611d0657611d058282612398565b5b5b505050565b600073ffffffffffffffffffffffffffffffffffffffff168273ffffffffffffffffffffffffffffffffffffffff161415611d7c576040517f08c379a0000000000000000000000000000000000000000000000000000000008152600401611d7390612e34565b60405180910390fd5b611d8581611035565b15611dc5576040517f08c379a0000000000000000000000000000000000000000000000000000000008152600401611dbc90612d34565b60405180910390fd5b611dd1600083836118a8565b6001600360008473ffffffffffffffffffffffffffffffffffffffff1673ffffffffffffffffffffffffffffffffffffffff1681526020019081526020016000206000828254611e219190613039565b92505081905550816002600083815260200190815260200160002060006101000a81548173ffffffffffffffffffffffffffffffffffffffff021916908373ffffffffffffffffffffffffffffffffffffffff160217905550808273ffffffffffffffffffffffffffffffffffffffff16600073ffffffffffffffffffffffffffffffffffffffff167fddf252ad1be2c89b69c2b068fc378daa952ba7f163c4a11628f55a4df523b3ef60405160405180910390a45050565b600080823b905060008111915050919050565b60606000821415611f35576040518060400160405280600181526020017f30000000000000000000000000000000000000000000000000000000000000008152509050612095565b600082905060005b60008214611f67578080611f509061320d565b915050600a82611f60919061308f565b9150611f3d565b60008167ffffffffffffffff811115611fa9577f4e487b7100000000000000000000000000000000000000000000000000000000600052604160045260246000fd5b6040519080825280601f01601f191660200182016040528015611fdb5781602001600182028036833780820191505090505b5090505b6000851461208e57600182611ff491906130c0565b9150600a856120039190613256565b603061200f9190613039565b60f81b81838151811061204b577f4e487b7100000000000000000000000000000000000000000000000000000000600052603260045260246000fd5b60200101907effffffffffffffffffffffffffffffffffffffffffffffffffffffffffffff1916908160001a905350600a85612087919061308f565b9450611fdf565b8093505050505b919050565b505050565b6008805490506009600083815260200190815260200160002081905550600881908060018154018082558091505060019003906000526020600020016000909190919091505550565b600060016120f584610a3e565b6120ff91906130c0565b90506000600760008481526020019081526020016000205490508181146121e4576000600660008673ffffffffffffffffffffffffffffffffffffffff1673ffffffffffffffffffffffffffffffffffffffff168152602001908152602001600020600084815260200190815260200160002054905080600660008773ffffffffffffffffffffffffffffffffffffffff1673ffffffffffffffffffffffffffffffffffffffff168152602001908152602001600020600084815260200190815260200160002081905550816007600083815260200190815260200160002081905550505b6007600084815260200190815260200160002060009055600660008573ffffffffffffffffffffffffffffffffffffffff1673ffffffffffffffffffffffffffffffffffffffff16815260200190815260200160002060008381526020019081526020016000206000905550505050565b6000600160088054905061226991906130c0565b90506000600960008481526020019081526020016000205490506000600883815481106122bf577f4e487b7100000000000000000000000000000000000000000000000000000000600052603260045260246000fd5b906000526020600020015490508060088381548110612307577f4e487b7100000000000000000000000000000000000000000000000000000000600052603260045260246000fd5b90600052602060002001819055508160096000838152602001908152602001600020819055506009600085815260200190815260200160002060009055600880548061237c577f4e487b7100000000000000000000000000000000000000000000000000000000600052603160045260246000fd5b6001900381819060005260206000200160009055905550505050565b60006123a383610a3e565b905081600660008573ffffffffffffffffffffffffffffffffffffffff1673ffffffffffffffffffffffffffffffffffffffff168152602001908152602001600020600083815260200190815260200160002081905550806007600084815260200190815260200160002081905550505050565b828054612423906131aa565b90600052602060002090601f016020900481019282612445576000855561248c565b82601f1061245e57805160ff191683800117855561248c565b8280016001018555821561248c579182015b8281111561248b578251825591602001919060010190612470565b5b509050612499919061249d565b5090565b5b808211156124b657600081600090555060010161249e565b5090565b60006124cd6124c884612f94565b612f6f565b9050828152602081018484840111156124e557600080fd5b6124f0848285613168565b509392505050565b600061250b61250684612fc5565b612f6f565b90508281526020810184848401111561252357600080fd5b61252e848285613168565b509392505050565b600081359050612545816138e8565b92915050565b60008135905061255a816138ff565b92915050565b60008135905061256f81613916565b92915050565b60008151905061258481613916565b92915050565b600082601f83011261259b57600080fd5b81356125ab8482602086016124ba565b91505092915050565b600082601f8301126125c557600080fd5b81356125d58482602086016124f8565b91505092915050565b6000813590506125ed8161392d565b92915050565b60006020828403121561260557600080fd5b600061261384828501612536565b91505092915050565b6000806040838503121561262f57600080fd5b600061263d85828601612536565b925050602061264e85828601612536565b9150509250929050565b60008060006060848603121561266d57600080fd5b600061267b86828701612536565b935050602061268c86828701612536565b925050604061269d868287016125de565b9150509250925092565b600080600080608085870312156126bd57600080fd5b60006126cb87828801612536565b94505060206126dc87828801612536565b93505060406126ed878288016125de565b925050606085013567ffffffffffffffff81111561270a57600080fd5b6127168782880161258a565b91505092959194509250565b6000806040838503121561273557600080fd5b600061274385828601612536565b92505060206127548582860161254b565b9150509250929050565b6000806040838503121561277157600080fd5b600061277f85828601612536565b9250506020612790858286016125de565b9150509250929050565b6000602082840312156127ac57600080fd5b60006127ba84828501612560565b91505092915050565b6000602082840312156127d557600080fd5b60006127e384828501612575565b91505092915050565b6000602082840312156127fe57600080fd5b600061280c848285016125de565b91505092915050565b6000806040838503121561282857600080fd5b6000612836858286016125de565b925050602083013567ffffffffffffffff81111561285357600080fd5b61285f858286016125b4565b9150509250929050565b612872816130f4565b82525050565b61288181613106565b82525050565b600061289282612ff6565b61289c818561300c565b93506128ac818560208601613177565b6128b581613343565b840191505092915050565b60006128cb82613001565b6128d5818561301d565b93506128e5818560208601613177565b6128ee81613343565b840191505092915050565b600061290482613001565b61290e818561302e565b935061291e818560208601613177565b80840191505092915050565b6000612937602b8361301d565b915061294282613354565b604082019050919050565b600061295a60328361301d565b9150612965826133a3565b604082019050919050565b600061297d60268361301d565b9150612988826133f2565b604082019050919050565b60006129a0601c8361301d565b91506129ab82613441565b602082019050919050565b60006129c360248361301d565b91506129ce8261346a565b604082019050919050565b60006129e660198361301d565b91506129f1826134b9565b602082019050919050565b6000612a09602c8361301d565b9150612a14826134e2565b604082019050919050565b6000612a2c60388361301d565b9150612a3782613531565b604082019050919050565b6000612a4f602a8361301d565b9150612a5a82613580565b604082019050919050565b6000612a7260298361301d565b9150612a7d826135cf565b604082019050919050565b6000612a95602e8361301d565b9150612aa08261361e565b604082019050919050565b6000612ab860208361301d565b9150612ac38261366d565b602082019050919050565b6000612adb60318361301d565b9150612ae682613696565b604082019050919050565b6000612afe602c8361301d565b9150612b09826136e5565b604082019050919050565b6000612b2160208361301d565b9150612b2c82613734565b602082019050919050565b6000612b4460298361301d565b9150612b4f8261375d565b604082019050919050565b6000612b67602f8361301d565b9150612b72826137ac565b604082019050919050565b6000612b8a60218361301d565b9150612b95826137fb565b604082019050919050565b6000612bad60318361301d565b9150612bb88261384a565b604082019050919050565b6000612bd0602c8361301d565b9150612bdb82613899565b604082019050919050565b612bef8161315e565b82525050565b6000612c0182846128f9565b915081905092915050565b6000612c1882856128f9565b9150612c2482846128f9565b91508190509392505050565b6000602082019050612c456000830184612869565b92915050565b6000608082019050612c606000830187612869565b612c6d6020830186612869565b612c7a6040830185612be6565b8181036060830152612c8c8184612887565b905095945050505050565b6000602082019050612cac6000830184612878565b92915050565b60006020820190508181036000830152612ccc81846128c0565b905092915050565b60006020820190508181036000830152612ced8161292a565b9050919050565b60006020820190508181036000830152612d0d8161294d565b9050919050565b60006020820190508181036000830152612d2d81612970565b9050919050565b60006020820190508181036000830152612d4d81612993565b9050919050565b60006020820190508181036000830152612d6d816129b6565b9050919050565b60006020820190508181036000830152612d8d816129d9565b9050919050565b60006020820190508181036000830152612dad816129fc565b9050919050565b60006020820190508181036000830152612dcd81612a1f565b9050919050565b60006020820190508181036000830152612ded81612a42565b9050919050565b60006020820190508181036000830152612e0d81612a65565b9050919050565b60006020820190508181036000830152612e2d81612a88565b9050919050565b60006020820190508181036000830152612e4d81612aab565b9050919050565b60006020820190508181036000830152612e6d81612ace565b9050919050565b60006020820190508181036000830152612e8d81612af1565b9050919050565b60006020820190508181036000830152612ead81612b14565b9050919050565b60006020820190508181036000830152612ecd81612b37565b9050919050565b60006020820190508181036000830152612eed81612b5a565b9050919050565b60006020820190508181036000830152612f0d81612b7d565b9050919050565b60006020820190508181036000830152612f2d81612ba0565b9050919050565b60006020820190508181036000830152612f4d81612bc3565b9050919050565b6000602082019050612f696000830184612be6565b92915050565b6000612f79612f8a565b9050612f8582826131dc565b919050565b6000604051905090565b600067ffffffffffffffff821115612faf57612fae613314565b5b612fb882613343565b9050602081019050919050565b600067ffffffffffffffff821115612fe057612fdf613314565b5b612fe982613343565b9050602081019050919050565b600081519050919050565b600081519050919050565b600082825260208201905092915050565b600082825260208201905092915050565b600081905092915050565b60006130448261315e565b915061304f8361315e565b9250827fffffffffffffffffffffffffffffffffffffffffffffffffffffffffffffffff0382111561308457613083613287565b5b828201905092915050565b600061309a8261315e565b91506130a58361315e565b9250826130b5576130b46132b6565b5b828204905092915050565b60006130cb8261315e565b91506130d68361315e565b9250828210156130e9576130e8613287565b5b828203905092915050565b60006130ff8261313e565b9050919050565b60008115159050919050565b60007fffffffff0000000000000000000000000000000000000000000000000000000082169050919050565b600073ffffffffffffffffffffffffffffffffffffffff82169050919050565b6000819050919050565b82818337600083830152505050565b60005b8381101561319557808201518184015260208101905061317a565b838111156131a4576000848401525b50505050565b600060028204905060018216806131c257607f821691505b602082108114156131d6576131d56132e5565b5b50919050565b6131e582613343565b810181811067ffffffffffffffff8211171561320457613203613314565b5b80604052505050565b60006132188261315e565b91507fffffffffffffffffffffffffffffffffffffffffffffffffffffffffffffffff82141561324b5761324a613287565b5b600182019050919050565b60006132618261315e565b915061326c8361315e565b92508261327c5761327b6132b6565b5b828206905092915050565b7f4e487b7100000000000000000000000000000000000000000000000000000000600052601160045260246000fd5b7f4e487b7100000000000000000000000000000000000000000000000000000000600052601260045260246000fd5b7f4e487b7100000000000000000000000000000000000000000000000000000000600052602260045260246000fd5b7f4e487b7100000000000000000000000000000000000000000000000000000000600052604160045260246000fd5b6000601f19601f8301169050919050565b7f455243373231456e756d657261626c653a206f776e657220696e646578206f7560008201527f74206f6620626f756e6473000000000000000000000000000000000000000000602082015250565b7f4552433732313a207472616e7366657220746f206e6f6e20455243373231526560008201527f63656976657220696d706c656d656e7465720000000000000000000000000000602082015250565b7f4f776e61626c653a206e6577206f776e657220697320746865207a65726f206160008201527f6464726573730000000000000000000000000000000000000000000000000000602082015250565b7f4552433732313a20746f6b656e20616c7265616479206d696e74656400000000600082015250565b7f4552433732313a207472616e7366657220746f20746865207a65726f2061646460008201527f7265737300000000000000000000000000000000000000000000000000000000602082015250565b7f4552433732313a20617070726f766520746f2063616c6c657200000000000000600082015250565b7f4552433732313a206f70657261746f7220717565727920666f72206e6f6e657860008201527f697374656e7420746f6b656e0000000000000000000000000000000000000000602082015250565b7f4552433732313a20617070726f76652063616c6c6572206973206e6f74206f7760008201527f6e6572206e6f7220617070726f76656420666f7220616c6c0000000000000000602082015250565b7f4552433732313a2062616c616e636520717565727920666f7220746865207a6560008201527f726f206164647265737300000000000000000000000000000000000000000000602082015250565b7f4552433732313a206f776e657220717565727920666f72206e6f6e657869737460008201527f656e7420746f6b656e0000000000000000000000000000000000000000000000602082015250565b7f45524337323155524953746f726167653a2055524920736574206f66206e6f6e60008201527f6578697374656e7420746f6b656e000000000000000000000000000000000000602082015250565b7f4552433732313a206d696e7420746f20746865207a65726f2061646472657373600082015250565b7f45524337323155524953746f726167653a2055524920717565727920666f722060008201527f6e6f6e6578697374656e7420746f6b656e000000000000000000000000000000602082015250565b7f4552433732313a20617070726f76656420717565727920666f72206e6f6e657860008201527f697374656e7420746f6b656e0000000000000000000000000000000000000000602082015250565b7f4f776e61626c653a2063616c6c6572206973206e6f7420746865206f776e6572600082015250565b7f4552433732313a207472616e73666572206f6620746f6b656e2074686174206960008201527f73206e6f74206f776e0000000000000000000000000000000000000000000000602082015250565b7f4552433732314d657461646174613a2055524920717565727920666f72206e6f60008201527f6e6578697374656e7420746f6b656e0000000000000000000000000000000000602082015250565b7f4552433732313a20617070726f76616c20746f2063757272656e74206f776e6560008201527f7200000000000000000000000000000000000000000000000000000000000000602082015250565b7f4552433732313a207472616e736665722063616c6c6572206973206e6f74206f60008201527f776e6572206e6f7220617070726f766564000000000000000000000000000000602082015250565b7f455243373231456e756d657261626c653a20676c6f62616c20696e646578206f60008201527f7574206f6620626f756e64730000000000000000000000000000000000000000602082015250565b6138f1816130f4565b81146138fc57600080fd5b50565b61390881613106565b811461391357600080fd5b50565b61391f81613112565b811461392a57600080fd5b50565b6139368161315e565b811461394157600080fd5b5056fea264697066735822122012463eb7c06a03d6c358f8b4c02a6757522f919e985d8fb49a28c3746d77716a64736f6c63430008040033",
  "devdoc": {
    "author": ": @ bretth18 / @ computerdata",
    "details": ": standard nft implementation using openzeppelin libs must be modified for access control.  we want our controller to be in full control?",
    "kind": "dev",
    "methods": {
      "approve(address,uint256)": {
        "details": "See {IERC721-approve}."
      },
      "balanceOf(address)": {
        "details": "See {IERC721-balanceOf}."
      },
      "getApproved(uint256)": {
        "details": "See {IERC721-getApproved}."
      },
      "isApprovedForAll(address,address)": {
        "details": "See {IERC721-isApprovedForAll}."
      },
      "name()": {
        "details": "See {IERC721Metadata-name}."
      },
      "owner()": {
        "details": "Returns the address of the current owner."
      },
      "ownerOf(uint256)": {
        "details": "See {IERC721-ownerOf}."
      },
      "renounceOwnership()": {
        "details": "Leaves the contract without owner. It will not be possible to call `onlyOwner` functions anymore. Can only be called by the current owner. NOTE: Renouncing ownership will leave the contract without an owner, thereby removing any functionality that is only available to the owner."
      },
      "safeTransferFrom(address,address,uint256)": {
        "details": "See {IERC721-safeTransferFrom}."
      },
      "safeTransferFrom(address,address,uint256,bytes)": {
        "details": "See {IERC721-safeTransferFrom}."
      },
      "setApprovalForAll(address,bool)": {
        "details": "See {IERC721-setApprovalForAll}."
      },
      "symbol()": {
        "details": "See {IERC721Metadata-symbol}."
      },
      "tokenByIndex(uint256)": {
        "details": "See {IERC721Enumerable-tokenByIndex}."
      },
      "tokenOfOwnerByIndex(address,uint256)": {
        "details": "See {IERC721Enumerable-tokenOfOwnerByIndex}."
      },
      "totalSupply()": {
        "details": "See {IERC721Enumerable-totalSupply}."
      },
      "transferFrom(address,address,uint256)": {
        "details": "See {IERC721-transferFrom}."
      },
      "transferOwnership(address)": {
        "details": "Transfers ownership of the contract to a new account (`newOwner`). Can only be called by the current owner."
      }
    },
    "title": ": \"seasonpass\"",
    "version": 1
  },
  "userdoc": {
    "events": {
      "SeasonPassMinted(address,uint256)": {
        "notice": "Events"
      }
    },
    "kind": "user",
    "methods": {
      "constructor": {
        "notice": "Constructor"
      }
    },
    "notice": "___  ___  __ _ ___  ___  _ __  _ __   __ _ ___ ___  / __|/ _ \\/ _` / __|/ _ \\| '_ \\| '_ \\ / _` / __/ __| \\__ \\  __/ (_| \\__ \\ (_) | | | | |_) | (_| \\__ \\__ \\ |___/\\___|\\__,_|___/\\___/|_| |_| .__/ \\__,_|___/___/ |_|                   ----------------------------------------------------- \"seasonpass\": ERC-721 seasonal pass NFT for token gated communities & DAO's.",
    "version": 1
  },
  "storageLayout": {
    "storage": [
      {
        "astId": 509,
        "contract": "contracts/SeasonPass.sol:SeasonPass",
        "label": "_name",
        "offset": 0,
        "slot": "0",
        "type": "t_string_storage"
      },
      {
        "astId": 511,
        "contract": "contracts/SeasonPass.sol:SeasonPass",
        "label": "_symbol",
        "offset": 0,
        "slot": "1",
        "type": "t_string_storage"
      },
      {
        "astId": 515,
        "contract": "contracts/SeasonPass.sol:SeasonPass",
        "label": "_owners",
        "offset": 0,
        "slot": "2",
        "type": "t_mapping(t_uint256,t_address)"
      },
      {
        "astId": 519,
        "contract": "contracts/SeasonPass.sol:SeasonPass",
        "label": "_balances",
        "offset": 0,
        "slot": "3",
        "type": "t_mapping(t_address,t_uint256)"
      },
      {
        "astId": 523,
        "contract": "contracts/SeasonPass.sol:SeasonPass",
        "label": "_tokenApprovals",
        "offset": 0,
        "slot": "4",
        "type": "t_mapping(t_uint256,t_address)"
      },
      {
        "astId": 529,
        "contract": "contracts/SeasonPass.sol:SeasonPass",
        "label": "_operatorApprovals",
        "offset": 0,
        "slot": "5",
        "type": "t_mapping(t_address,t_mapping(t_address,t_bool))"
      },
      {
        "astId": 1448,
        "contract": "contracts/SeasonPass.sol:SeasonPass",
        "label": "_ownedTokens",
        "offset": 0,
        "slot": "6",
        "type": "t_mapping(t_address,t_mapping(t_uint256,t_uint256))"
      },
      {
        "astId": 1452,
        "contract": "contracts/SeasonPass.sol:SeasonPass",
        "label": "_ownedTokensIndex",
        "offset": 0,
        "slot": "7",
        "type": "t_mapping(t_uint256,t_uint256)"
      },
      {
        "astId": 1455,
        "contract": "contracts/SeasonPass.sol:SeasonPass",
        "label": "_allTokens",
        "offset": 0,
        "slot": "8",
        "type": "t_array(t_uint256)dyn_storage"
      },
      {
        "astId": 1459,
        "contract": "contracts/SeasonPass.sol:SeasonPass",
        "label": "_allTokensIndex",
        "offset": 0,
        "slot": "9",
        "type": "t_mapping(t_uint256,t_uint256)"
      },
      {
        "astId": 1784,
        "contract": "contracts/SeasonPass.sol:SeasonPass",
        "label": "_tokenURIs",
        "offset": 0,
        "slot": "10",
        "type": "t_mapping(t_uint256,t_string_storage)"
      },
      {
        "astId": 387,
        "contract": "contracts/SeasonPass.sol:SeasonPass",
        "label": "_owner",
        "offset": 0,
        "slot": "11",
        "type": "t_address"
      },
      {
        "astId": 2615,
        "contract": "contracts/SeasonPass.sol:SeasonPass",
        "label": "_tokenIdCounter",
        "offset": 0,
        "slot": "12",
        "type": "t_struct(Counter)2282_storage"
      }
    ],
    "types": {
      "t_address": {
        "encoding": "inplace",
        "label": "address",
        "numberOfBytes": "20"
      },
      "t_array(t_uint256)dyn_storage": {
        "base": "t_uint256",
        "encoding": "dynamic_array",
        "label": "uint256[]",
        "numberOfBytes": "32"
      },
      "t_bool": {
        "encoding": "inplace",
        "label": "bool",
        "numberOfBytes": "1"
      },
      "t_mapping(t_address,t_bool)": {
        "encoding": "mapping",
        "key": "t_address",
        "label": "mapping(address => bool)",
        "numberOfBytes": "32",
        "value": "t_bool"
      },
      "t_mapping(t_address,t_mapping(t_address,t_bool))": {
        "encoding": "mapping",
        "key": "t_address",
        "label": "mapping(address => mapping(address => bool))",
        "numberOfBytes": "32",
        "value": "t_mapping(t_address,t_bool)"
      },
      "t_mapping(t_address,t_mapping(t_uint256,t_uint256))": {
        "encoding": "mapping",
        "key": "t_address",
        "label": "mapping(address => mapping(uint256 => uint256))",
        "numberOfBytes": "32",
        "value": "t_mapping(t_uint256,t_uint256)"
      },
      "t_mapping(t_address,t_uint256)": {
        "encoding": "mapping",
        "key": "t_address",
        "label": "mapping(address => uint256)",
        "numberOfBytes": "32",
        "value": "t_uint256"
      },
      "t_mapping(t_uint256,t_address)": {
        "encoding": "mapping",
        "key": "t_uint256",
        "label": "mapping(uint256 => address)",
        "numberOfBytes": "32",
        "value": "t_address"
      },
      "t_mapping(t_uint256,t_string_storage)": {
        "encoding": "mapping",
        "key": "t_uint256",
        "label": "mapping(uint256 => string)",
        "numberOfBytes": "32",
        "value": "t_string_storage"
      },
      "t_mapping(t_uint256,t_uint256)": {
        "encoding": "mapping",
        "key": "t_uint256",
        "label": "mapping(uint256 => uint256)",
        "numberOfBytes": "32",
        "value": "t_uint256"
      },
      "t_string_storage": {
        "encoding": "bytes",
        "label": "string",
        "numberOfBytes": "32"
      },
      "t_struct(Counter)2282_storage": {
        "encoding": "inplace",
        "label": "struct Counters.Counter",
        "members": [
          {
            "astId": 2281,
            "contract": "contracts/SeasonPass.sol:SeasonPass",
            "label": "_value",
            "offset": 0,
            "slot": "0",
            "type": "t_uint256"
          }
        ],
        "numberOfBytes": "32"
      },
      "t_uint256": {
        "encoding": "inplace",
        "label": "uint256",
        "numberOfBytes": "32"
      }
    }
  }
}