{
  "address": "0x6244f4243bd47A33075C365A2Cc9a397CADDe465",
  "abi": [
    {
      "inputs": [],
      "stateMutability": "nonpayable",
      "type": "constructor"
    },
    {
      "anonymous": false,
      "inputs": [
        {
          "indexed": true,
          "internalType": "address",
          "name": "owner",
          "type": "address"
        },
        {
          "indexed": true,
          "internalType": "address",
          "name": "approved",
          "type": "address"
        },
        {
          "indexed": true,
          "internalType": "uint256",
          "name": "tokenId",
          "type": "uint256"
        }
      ],
      "name": "Approval",
      "type": "event"
    },
    {
      "anonymous": false,
      "inputs": [
        {
          "indexed": true,
          "internalType": "address",
          "name": "owner",
          "type": "address"
        },
        {
          "indexed": true,
          "internalType": "address",
          "name": "operator",
          "type": "address"
        },
        {
          "indexed": false,
          "internalType": "bool",
          "name": "approved",
          "type": "bool"
        }
      ],
      "name": "ApprovalForAll",
      "type": "event"
    },
    {
      "anonymous": false,
      "inputs": [
        {
          "indexed": true,
          "internalType": "address",
          "name": "previousOwner",
          "type": "address"
        },
        {
          "indexed": true,
          "internalType": "address",
          "name": "newOwner",
          "type": "address"
        }
      ],
      "name": "OwnershipTransferred",
      "type": "event"
    },
    {
      "anonymous": false,
      "inputs": [
        {
          "indexed": true,
          "internalType": "uint256",
          "name": "tokenId",
          "type": "uint256"
        },
        {
          "indexed": true,
          "internalType": "string",
          "name": "metadataURI",
          "type": "string"
        }
      ],
      "name": "SPTokenMetadataChanged",
      "type": "event"
    },
    {
      "anonymous": false,
      "inputs": [
        {
          "indexed": true,
          "internalType": "address",
          "name": "member",
          "type": "address"
        },
        {
          "indexed": true,
          "internalType": "uint256",
          "name": "tokenId",
          "type": "uint256"
        }
      ],
      "name": "SeasonPassMinted",
      "type": "event"
    },
    {
      "anonymous": false,
      "inputs": [
        {
          "indexed": true,
          "internalType": "address",
          "name": "member",
          "type": "address"
        },
        {
          "indexed": true,
          "internalType": "uint256",
          "name": "tokenId",
          "type": "uint256"
        }
      ],
      "name": "SeasonPassRevoked",
      "type": "event"
    },
    {
      "anonymous": false,
      "inputs": [
        {
          "indexed": true,
          "internalType": "address",
          "name": "from",
          "type": "address"
        },
        {
          "indexed": true,
          "internalType": "address",
          "name": "to",
          "type": "address"
        },
        {
          "indexed": true,
          "internalType": "uint256",
          "name": "tokenId",
          "type": "uint256"
        }
      ],
      "name": "Transfer",
      "type": "event"
    },
    {
      "inputs": [
        {
          "internalType": "address",
          "name": "to",
          "type": "address"
        },
        {
          "internalType": "uint256",
          "name": "tokenId",
          "type": "uint256"
        }
      ],
      "name": "approve",
      "outputs": [],
      "stateMutability": "nonpayable",
      "type": "function"
    },
    {
      "inputs": [
        {
          "internalType": "address",
          "name": "owner",
          "type": "address"
        }
      ],
      "name": "balanceOf",
      "outputs": [
        {
          "internalType": "uint256",
          "name": "",
          "type": "uint256"
        }
      ],
      "stateMutability": "view",
      "type": "function"
    },
    {
      "inputs": [
        {
          "internalType": "uint256",
          "name": "tokenId",
          "type": "uint256"
        }
      ],
      "name": "getApproved",
      "outputs": [
        {
          "internalType": "address",
          "name": "",
          "type": "address"
        }
      ],
      "stateMutability": "view",
      "type": "function"
    },
    {
      "inputs": [
        {
          "internalType": "address",
          "name": "owner",
          "type": "address"
        },
        {
          "internalType": "address",
          "name": "operator",
          "type": "address"
        }
      ],
      "name": "isApprovedForAll",
      "outputs": [
        {
          "internalType": "bool",
          "name": "",
          "type": "bool"
        }
      ],
      "stateMutability": "view",
      "type": "function"
    },
    {
      "inputs": [],
      "name": "name",
      "outputs": [
        {
          "internalType": "string",
          "name": "",
          "type": "string"
        }
      ],
      "stateMutability": "view",
      "type": "function"
    },
    {
      "inputs": [],
      "name": "owner",
      "outputs": [
        {
          "internalType": "address",
          "name": "",
          "type": "address"
        }
      ],
      "stateMutability": "view",
      "type": "function"
    },
    {
      "inputs": [
        {
          "internalType": "uint256",
          "name": "tokenId",
          "type": "uint256"
        }
      ],
      "name": "ownerOf",
      "outputs": [
        {
          "internalType": "address",
          "name": "",
          "type": "address"
        }
      ],
      "stateMutability": "view",
      "type": "function"
    },
    {
      "inputs": [],
      "name": "renounceOwnership",
      "outputs": [],
      "stateMutability": "nonpayable",
      "type": "function"
    },
    {
      "inputs": [
        {
          "internalType": "address",
          "name": "to",
          "type": "address"
        }
      ],
      "name": "safeMint",
      "outputs": [
        {
          "internalType": "uint256",
          "name": "",
          "type": "uint256"
        }
      ],
      "stateMutability": "nonpayable",
      "type": "function"
    },
    {
      "inputs": [
        {
          "internalType": "address",
          "name": "from",
          "type": "address"
        },
        {
          "internalType": "address",
          "name": "to",
          "type": "address"
        },
        {
          "internalType": "uint256",
          "name": "tokenId",
          "type": "uint256"
        }
      ],
      "name": "safeTransferFrom",
      "outputs": [],
      "stateMutability": "nonpayable",
      "type": "function"
    },
    {
      "inputs": [
        {
          "internalType": "address",
          "name": "from",
          "type": "address"
        },
        {
          "internalType": "address",
          "name": "to",
          "type": "address"
        },
        {
          "internalType": "uint256",
          "name": "tokenId",
          "type": "uint256"
        },
        {
          "internalType": "bytes",
          "name": "_data",
          "type": "bytes"
        }
      ],
      "name": "safeTransferFrom",
      "outputs": [],
      "stateMutability": "nonpayable",
      "type": "function"
    },
    {
      "inputs": [
        {
          "internalType": "address",
          "name": "operator",
          "type": "address"
        },
        {
          "internalType": "bool",
          "name": "approved",
          "type": "bool"
        }
      ],
      "name": "setApprovalForAll",
      "outputs": [],
      "stateMutability": "nonpayable",
      "type": "function"
    },
    {
      "inputs": [
        {
          "internalType": "address",
          "name": "controllerAddress",
          "type": "address"
        }
      ],
      "name": "setController",
      "outputs": [],
      "stateMutability": "nonpayable",
      "type": "function"
    },
    {
      "inputs": [
        {
          "internalType": "uint256",
          "name": "tokenId",
          "type": "uint256"
        },
        {
          "internalType": "string",
          "name": "metadataURI",
          "type": "string"
        }
      ],
      "name": "setTokenMetadata",
      "outputs": [],
      "stateMutability": "nonpayable",
      "type": "function"
    },
    {
      "inputs": [
        {
          "internalType": "bytes4",
          "name": "interfaceId",
          "type": "bytes4"
        }
      ],
      "name": "supportsInterface",
      "outputs": [
        {
          "internalType": "bool",
          "name": "",
          "type": "bool"
        }
      ],
      "stateMutability": "view",
      "type": "function"
    },
    {
      "inputs": [],
      "name": "symbol",
      "outputs": [
        {
          "internalType": "string",
          "name": "",
          "type": "string"
        }
      ],
      "stateMutability": "view",
      "type": "function"
    },
    {
      "inputs": [
        {
          "internalType": "uint256",
          "name": "index",
          "type": "uint256"
        }
      ],
      "name": "tokenByIndex",
      "outputs": [
        {
          "internalType": "uint256",
          "name": "",
          "type": "uint256"
        }
      ],
      "stateMutability": "view",
      "type": "function"
    },
    {
      "inputs": [
        {
          "internalType": "address",
          "name": "owner",
          "type": "address"
        },
        {
          "internalType": "uint256",
          "name": "index",
          "type": "uint256"
        }
      ],
      "name": "tokenOfOwnerByIndex",
      "outputs": [
        {
          "internalType": "uint256",
          "name": "",
          "type": "uint256"
        }
      ],
      "stateMutability": "view",
      "type": "function"
    },
    {
      "inputs": [
        {
          "internalType": "uint256",
          "name": "tokenId",
          "type": "uint256"
        }
      ],
      "name": "tokenURI",
      "outputs": [
        {
          "internalType": "string",
          "name": "",
          "type": "string"
        }
      ],
      "stateMutability": "view",
      "type": "function"
    },
    {
      "inputs": [],
      "name": "totalSupply",
      "outputs": [
        {
          "internalType": "uint256",
          "name": "",
          "type": "uint256"
        }
      ],
      "stateMutability": "view",
      "type": "function"
    },
    {
      "inputs": [
        {
          "internalType": "address",
          "name": "from",
          "type": "address"
        },
        {
          "internalType": "address",
          "name": "to",
          "type": "address"
        },
        {
          "internalType": "uint256",
          "name": "tokenId",
          "type": "uint256"
        }
      ],
      "name": "transferFrom",
      "outputs": [],
      "stateMutability": "nonpayable",
      "type": "function"
    },
    {
      "inputs": [
        {
          "internalType": "address",
          "name": "newOwner",
          "type": "address"
        }
      ],
      "name": "transferOwnership",
      "outputs": [],
      "stateMutability": "nonpayable",
      "type": "function"
    }
  ],
  "transactionHash": "0x3187678441583da6dc40addcc652d432b66b5d981de781bc2fd738aef2a9f9d8",
  "args": [],
  "solcInputHash": "948b1629f2df237a9932b18d195380db",
  "bytecode": "0x60806040523480156200001157600080fd5b50604080518082018252600a815269536561736f6e5061737360b01b6020808301918252835180850190945260048452630535030360e41b9084015281519192916200006091600091620000ef565b50805162000076906001906020840190620000ef565b505050620000936200008d6200009960201b60201c565b6200009d565b620001d2565b3390565b600b80546001600160a01b038381166001600160a01b0319831681179093556040519116919082907f8be0079c531659141344cd1fd0a4f28419497f9722a3daafe3b4186f6b6457e090600090a35050565b828054620000fd9062000195565b90600052602060002090601f0160209004810192826200012157600085556200016c565b82601f106200013c57805160ff19168380011785556200016c565b828001600101855582156200016c579182015b828111156200016c5782518255916020019190600101906200014f565b506200017a9291506200017e565b5090565b5b808211156200017a57600081556001016200017f565b600181811c90821680620001aa57607f821691505b60208210811415620001cc57634e487b7160e01b600052602260045260246000fd5b50919050565b611e3a80620001e26000396000f3fe608060405234801561001057600080fd5b50600436106101425760003560e01c80636352211e116100b857806395d89b411161007c57806395d89b411461029a578063a22cb465146102a2578063b88d4fde146102b5578063c87b56dd146102c8578063e985e9c5146102db578063f2fde38b1461031757600080fd5b80636352211e1461024857806370a082311461025b578063715018a61461026e5780638da5cb5b1461027657806392eefe9b1461028757600080fd5b806323b872dd1161010a57806323b872dd146101d65780632f745c59146101e957806340d097c3146101fc57806342842e0e1461020f5780634f6ccce714610222578063510ef1de1461023557600080fd5b806301ffc9a71461014757806306fdde031461016f578063081812fc14610184578063095ea7b3146101af57806318160ddd146101c4575b600080fd5b61015a610155366004611ac1565b61032a565b60405190151581526020015b60405180910390f35b61017761033b565b6040516101669190611c1d565b610197610192366004611af9565b6103cd565b6040516001600160a01b039091168152602001610166565b6101c26101bd366004611a98565b61045a565b005b6008545b604051908152602001610166565b6101c26101e43660046119aa565b610570565b6101c86101f7366004611a98565b6105a1565b6101c861020a36600461195e565b610637565b6101c261021d3660046119aa565b61069c565b6101c8610230366004611af9565b6106b7565b6101c2610243366004611b11565b610758565b610197610256366004611af9565b6107a6565b6101c861026936600461195e565b61081d565b6101c26108a4565b600b546001600160a01b0316610197565b6101c261029536600461195e565b61090a565b610177610916565b6101c26102b0366004611a5e565b610925565b6101c26102c33660046119e5565b6109ea565b6101776102d6366004611af9565b610a22565b61015a6102e9366004611978565b6001600160a01b03918216600090815260056020908152604080832093909416825291909152205460ff1690565b6101c261032536600461195e565b610a2d565b600061033582610af5565b92915050565b60606000805461034a90611d42565b80601f016020809104026020016040519081016040528092919081815260200182805461037690611d42565b80156103c35780601f10610398576101008083540402835291602001916103c3565b820191906000526020600020905b8154815290600101906020018083116103a657829003601f168201915b5050505050905090565b60006103d882610b1a565b61043e5760405162461bcd60e51b815260206004820152602c60248201527f4552433732313a20617070726f76656420717565727920666f72206e6f6e657860448201526b34b9ba32b73a103a37b5b2b760a11b60648201526084015b60405180910390fd5b506000908152600460205260409020546001600160a01b031690565b6000610465826107a6565b9050806001600160a01b0316836001600160a01b031614156104d35760405162461bcd60e51b815260206004820152602160248201527f4552433732313a20617070726f76616c20746f2063757272656e74206f776e656044820152603960f91b6064820152608401610435565b336001600160a01b03821614806104ef57506104ef81336102e9565b6105615760405162461bcd60e51b815260206004820152603860248201527f4552433732313a20617070726f76652063616c6c6572206973206e6f74206f7760448201527f6e6572206e6f7220617070726f76656420666f7220616c6c00000000000000006064820152608401610435565b61056b8383610b37565b505050565b61057a3382610ba5565b6105965760405162461bcd60e51b815260040161043590611c82565b61056b838383610c8f565b60006105ac8361081d565b821061060e5760405162461bcd60e51b815260206004820152602b60248201527f455243373231456e756d657261626c653a206f776e657220696e646578206f7560448201526a74206f6620626f756e647360a81b6064820152608401610435565b506001600160a01b03919091166000908152600660209081526040808320938352929052205490565b600080610643600c5490565b905061065783610652600c5490565b610e3a565b600c546040516001600160a01b038516907ff8064ead01f281d7b4f7d51116c9141b59f2d31de7df86092bbd465eb48ad04a90600090a3610335600c80546001019055565b61056b838383604051806020016040528060008152506109ea565b60006106c260085490565b82106107255760405162461bcd60e51b815260206004820152602c60248201527f455243373231456e756d657261626c653a20676c6f62616c20696e646578206f60448201526b7574206f6620626f756e647360a01b6064820152608401610435565b6008828154811061074657634e487b7160e01b600052603260045260246000fd5b90600052602060002001549050919050565b6107628282610e58565b806040516107709190611b95565b6040519081900381209083907fedbbd91f5154eab1b049224d93cc635e23d22fe8d6f570f51f134772a6f5c90890600090a35050565b6000818152600260205260408120546001600160a01b0316806103355760405162461bcd60e51b815260206004820152602960248201527f4552433732313a206f776e657220717565727920666f72206e6f6e657869737460448201526832b73a103a37b5b2b760b91b6064820152608401610435565b60006001600160a01b0382166108885760405162461bcd60e51b815260206004820152602a60248201527f4552433732313a2062616c616e636520717565727920666f7220746865207a65604482015269726f206164647265737360b01b6064820152608401610435565b506001600160a01b031660009081526003602052604090205490565b600b546001600160a01b031633146108fe5760405162461bcd60e51b815260206004820181905260248201527f4f776e61626c653a2063616c6c6572206973206e6f7420746865206f776e65726044820152606401610435565b6109086000610ee3565b565b61091381610a2d565b50565b60606001805461034a90611d42565b6001600160a01b03821633141561097e5760405162461bcd60e51b815260206004820152601960248201527f4552433732313a20617070726f766520746f2063616c6c6572000000000000006044820152606401610435565b3360008181526005602090815260408083206001600160a01b03871680855290835292819020805460ff191686151590811790915590519081529192917f17307eab39ab6107e8899845ad3d59bd9653f200f220920489ca2b5937696c31910160405180910390a35050565b6109f43383610ba5565b610a105760405162461bcd60e51b815260040161043590611c82565b610a1c84848484610f35565b50505050565b606061033582610f68565b600b546001600160a01b03163314610a875760405162461bcd60e51b815260206004820181905260248201527f4f776e61626c653a2063616c6c6572206973206e6f7420746865206f776e65726044820152606401610435565b6001600160a01b038116610aec5760405162461bcd60e51b815260206004820152602660248201527f4f776e61626c653a206e6577206f776e657220697320746865207a65726f206160448201526564647265737360d01b6064820152608401610435565b61091381610ee3565b60006001600160e01b0319821663780e9d6360e01b14806103355750610335826110e6565b6000908152600260205260409020546001600160a01b0316151590565b600081815260046020526040902080546001600160a01b0319166001600160a01b0384169081179091558190610b6c826107a6565b6001600160a01b03167f8c5be1e5ebec7d5bd14f71427d1e84f3dd0314c0f7b2291e5b200ac8c7c3b92560405160405180910390a45050565b6000610bb082610b1a565b610c115760405162461bcd60e51b815260206004820152602c60248201527f4552433732313a206f70657261746f7220717565727920666f72206e6f6e657860448201526b34b9ba32b73a103a37b5b2b760a11b6064820152608401610435565b6000610c1c836107a6565b9050806001600160a01b0316846001600160a01b03161480610c575750836001600160a01b0316610c4c846103cd565b6001600160a01b0316145b80610c8757506001600160a01b0380821660009081526005602090815260408083209388168352929052205460ff165b949350505050565b826001600160a01b0316610ca2826107a6565b6001600160a01b031614610d0a5760405162461bcd60e51b815260206004820152602960248201527f4552433732313a207472616e73666572206f6620746f6b656e2074686174206960448201526839903737ba1037bbb760b91b6064820152608401610435565b6001600160a01b038216610d6c5760405162461bcd60e51b8152602060048201526024808201527f4552433732313a207472616e7366657220746f20746865207a65726f206164646044820152637265737360e01b6064820152608401610435565b610d77838383611136565b610d82600082610b37565b6001600160a01b0383166000908152600360205260408120805460019290610dab908490611cff565b90915550506001600160a01b0382166000908152600360205260408120805460019290610dd9908490611cd3565b909155505060008181526002602052604080822080546001600160a01b0319166001600160a01b0386811691821790925591518493918716917fddf252ad1be2c89b69c2b068fc378daa952ba7f163c4a11628f55a4df523b3ef91a4505050565b610e54828260405180602001604052806000815250611141565b5050565b610e6182610b1a565b610ec45760405162461bcd60e51b815260206004820152602e60248201527f45524337323155524953746f726167653a2055524920736574206f66206e6f6e60448201526d32bc34b9ba32b73a103a37b5b2b760911b6064820152608401610435565b6000828152600a60209081526040909120825161056b92840190611833565b600b80546001600160a01b038381166001600160a01b0319831681179093556040519116919082907f8be0079c531659141344cd1fd0a4f28419497f9722a3daafe3b4186f6b6457e090600090a35050565b610f40848484610c8f565b610f4c84848484611174565b610a1c5760405162461bcd60e51b815260040161043590611c30565b6060610f7382610b1a565b610fd95760405162461bcd60e51b815260206004820152603160248201527f45524337323155524953746f726167653a2055524920717565727920666f72206044820152703737b732bc34b9ba32b73a103a37b5b2b760791b6064820152608401610435565b6000828152600a602052604081208054610ff290611d42565b80601f016020809104026020016040519081016040528092919081815260200182805461101e90611d42565b801561106b5780601f106110405761010080835404028352916020019161106b565b820191906000526020600020905b81548152906001019060200180831161104e57829003601f168201915b505050505090506000611098604080518082019091526007815266697066733a2f2f60c81b602082015290565b90508051600014156110ab575092915050565b8151156110dd5780826040516020016110c5929190611bb1565b60405160208183030381529060405292505050919050565b610c8784611281565b60006001600160e01b031982166380ac58cd60e01b148061111757506001600160e01b03198216635b5e139f60e01b145b8061033557506301ffc9a760e01b6001600160e01b0319831614610335565b61056b838383611368565b61114b8383611420565b6111586000848484611174565b61056b5760405162461bcd60e51b815260040161043590611c30565b60006001600160a01b0384163b1561127657604051630a85bd0160e11b81526001600160a01b0385169063150b7a02906111b8903390899088908890600401611be0565b602060405180830381600087803b1580156111d257600080fd5b505af1925050508015611202575060408051601f3d908101601f191682019092526111ff91810190611add565b60015b61125c573d808015611230576040519150601f19603f3d011682016040523d82523d6000602084013e611235565b606091505b5080516112545760405162461bcd60e51b815260040161043590611c30565b805181602001fd5b6001600160e01b031916630a85bd0160e11b149050610c87565b506001949350505050565b606061128c82610b1a565b6112f05760405162461bcd60e51b815260206004820152602f60248201527f4552433732314d657461646174613a2055524920717565727920666f72206e6f60448201526e3732bc34b9ba32b73a103a37b5b2b760891b6064820152608401610435565b6000611316604080518082019091526007815266697066733a2f2f60c81b602082015290565b905060008151116113365760405180602001604052806000815250611361565b806113408461155f565b604051602001611351929190611bb1565b6040516020818303038152906040525b9392505050565b6001600160a01b0383166113c3576113be81600880546000838152600960205260408120829055600182018355919091527ff3f7a9fe364faab93b216da50a3214154f22a0a2b415b23a84c8169e8b636ee30155565b6113e6565b816001600160a01b0316836001600160a01b0316146113e6576113e68382611679565b6001600160a01b0382166113fd5761056b81611716565b826001600160a01b0316826001600160a01b03161461056b5761056b82826117ef565b6001600160a01b0382166114765760405162461bcd60e51b815260206004820181905260248201527f4552433732313a206d696e7420746f20746865207a65726f20616464726573736044820152606401610435565b61147f81610b1a565b156114cc5760405162461bcd60e51b815260206004820152601c60248201527f4552433732313a20746f6b656e20616c7265616479206d696e746564000000006044820152606401610435565b6114d860008383611136565b6001600160a01b0382166000908152600360205260408120805460019290611501908490611cd3565b909155505060008181526002602052604080822080546001600160a01b0319166001600160a01b03861690811790915590518392907fddf252ad1be2c89b69c2b068fc378daa952ba7f163c4a11628f55a4df523b3ef908290a45050565b6060816115835750506040805180820190915260018152600360fc1b602082015290565b8160005b81156115ad578061159781611d7d565b91506115a69050600a83611ceb565b9150611587565b60008167ffffffffffffffff8111156115d657634e487b7160e01b600052604160045260246000fd5b6040519080825280601f01601f191660200182016040528015611600576020820181803683370190505b5090505b8415610c8757611615600183611cff565b9150611622600a86611d98565b61162d906030611cd3565b60f81b81838151811061165057634e487b7160e01b600052603260045260246000fd5b60200101906001600160f81b031916908160001a905350611672600a86611ceb565b9450611604565b600060016116868461081d565b6116909190611cff565b6000838152600760205260409020549091508082146116e3576001600160a01b03841660009081526006602090815260408083208584528252808320548484528184208190558352600790915290208190555b5060009182526007602090815260408084208490556001600160a01b039094168352600681528383209183525290812055565b60085460009061172890600190611cff565b6000838152600960205260408120546008805493945090928490811061175e57634e487b7160e01b600052603260045260246000fd5b90600052602060002001549050806008838154811061178d57634e487b7160e01b600052603260045260246000fd5b60009182526020808320909101929092558281526009909152604080822084905585825281205560088054806117d357634e487b7160e01b600052603160045260246000fd5b6001900381819060005260206000200160009055905550505050565b60006117fa8361081d565b6001600160a01b039093166000908152600660209081526040808320868452825280832085905593825260079052919091209190915550565b82805461183f90611d42565b90600052602060002090601f01602090048101928261186157600085556118a7565b82601f1061187a57805160ff19168380011785556118a7565b828001600101855582156118a7579182015b828111156118a757825182559160200191906001019061188c565b506118b39291506118b7565b5090565b5b808211156118b357600081556001016118b8565b600067ffffffffffffffff808411156118e7576118e7611dd8565b604051601f8501601f19908116603f0116810190828211818310171561190f5761190f611dd8565b8160405280935085815286868601111561192857600080fd5b858560208301376000602087830101525050509392505050565b80356001600160a01b038116811461195957600080fd5b919050565b60006020828403121561196f578081fd5b61136182611942565b6000806040838503121561198a578081fd5b61199383611942565b91506119a160208401611942565b90509250929050565b6000806000606084860312156119be578081fd5b6119c784611942565b92506119d560208501611942565b9150604084013590509250925092565b600080600080608085870312156119fa578081fd5b611a0385611942565b9350611a1160208601611942565b925060408501359150606085013567ffffffffffffffff811115611a33578182fd5b8501601f81018713611a43578182fd5b611a52878235602084016118cc565b91505092959194509250565b60008060408385031215611a70578182fd5b611a7983611942565b915060208301358015158114611a8d578182fd5b809150509250929050565b60008060408385031215611aaa578182fd5b611ab383611942565b946020939093013593505050565b600060208284031215611ad2578081fd5b813561136181611dee565b600060208284031215611aee578081fd5b815161136181611dee565b600060208284031215611b0a578081fd5b5035919050565b60008060408385031215611b23578182fd5b82359150602083013567ffffffffffffffff811115611b40578182fd5b8301601f81018513611b50578182fd5b611b5f858235602084016118cc565b9150509250929050565b60008151808452611b81816020860160208601611d16565b601f01601f19169290920160200192915050565b60008251611ba7818460208701611d16565b9190910192915050565b60008351611bc3818460208801611d16565b835190830190611bd7818360208801611d16565b01949350505050565b6001600160a01b0385811682528416602082015260408101839052608060608201819052600090611c1390830184611b69565b9695505050505050565b6020815260006113616020830184611b69565b60208082526032908201527f4552433732313a207472616e7366657220746f206e6f6e20455243373231526560408201527131b2b4bb32b91034b6b83632b6b2b73a32b960711b606082015260800190565b60208082526031908201527f4552433732313a207472616e736665722063616c6c6572206973206e6f74206f6040820152701ddb995c881b9bdc88185c1c1c9bdd9959607a1b606082015260800190565b60008219821115611ce657611ce6611dac565b500190565b600082611cfa57611cfa611dc2565b500490565b600082821015611d1157611d11611dac565b500390565b60005b83811015611d31578181015183820152602001611d19565b83811115610a1c5750506000910152565b600181811c90821680611d5657607f821691505b60208210811415611d7757634e487b7160e01b600052602260045260246000fd5b50919050565b6000600019821415611d9157611d91611dac565b5060010190565b600082611da757611da7611dc2565b500690565b634e487b7160e01b600052601160045260246000fd5b634e487b7160e01b600052601260045260246000fd5b634e487b7160e01b600052604160045260246000fd5b6001600160e01b03198116811461091357600080fdfea26469706673582212209ec7074968f86a1b6d15ccec37293f864a5b0addfcff44b3cd52ccdf6d502a1b64736f6c63430008040033",
  "devdoc": {
    "author": ": @ bretth18 / @ computerdata",
    "details": ": standard nft implementation using openzeppelin libs must be modified for access control.  we want our controller to be in full control?",
    "kind": "dev",
    "methods": {
      "approve(address,uint256)": {
        "details": "See {IERC721-approve}."
      },
      "balanceOf(address)": {
        "details": "See {IERC721-balanceOf}."
      },
      "getApproved(uint256)": {
        "details": "See {IERC721-getApproved}."
      },
      "isApprovedForAll(address,address)": {
        "details": "See {IERC721-isApprovedForAll}."
      },
      "name()": {
        "details": "See {IERC721Metadata-name}."
      },
      "owner()": {
        "details": "Returns the address of the current owner."
      },
      "ownerOf(uint256)": {
        "details": "See {IERC721-ownerOf}."
      },
      "renounceOwnership()": {
        "details": "Leaves the contract without owner. It will not be possible to call `onlyOwner` functions anymore. Can only be called by the current owner. NOTE: Renouncing ownership will leave the contract without an owner, thereby removing any functionality that is only available to the owner."
      },
      "safeTransferFrom(address,address,uint256)": {
        "details": "See {IERC721-safeTransferFrom}."
      },
      "safeTransferFrom(address,address,uint256,bytes)": {
        "details": "See {IERC721-safeTransferFrom}."
      },
      "setApprovalForAll(address,bool)": {
        "details": "See {IERC721-setApprovalForAll}."
      },
      "symbol()": {
        "details": "See {IERC721Metadata-symbol}."
      },
      "tokenByIndex(uint256)": {
        "details": "See {IERC721Enumerable-tokenByIndex}."
      },
      "tokenOfOwnerByIndex(address,uint256)": {
        "details": "See {IERC721Enumerable-tokenOfOwnerByIndex}."
      },
      "totalSupply()": {
        "details": "See {IERC721Enumerable-totalSupply}."
      },
      "transferFrom(address,address,uint256)": {
        "details": "See {IERC721-transferFrom}."
      },
      "transferOwnership(address)": {
        "details": "Transfers ownership of the contract to a new account (`newOwner`). Can only be called by the current owner."
      }
    },
    "title": ": \"seasonpass\"",
    "version": 1
  },
  "userdoc": {
    "events": {
      "SeasonPassMinted(address,uint256)": {
        "notice": "Events"
      }
    },
    "kind": "user",
    "methods": {
      "constructor": {
        "notice": "Constructor"
      }
    },
    "notice": "___  ___  __ _ ___  ___  _ __  _ __   __ _ ___ ___  / __|/ _ \\/ _` / __|/ _ \\| '_ \\| '_ \\ / _` / __/ __| \\__ \\  __/ (_| \\__ \\ (_) | | | | |_) | (_| \\__ \\__ \\ |___/\\___|\\__,_|___/\\___/|_| |_| .__/ \\__,_|___/___/ |_|                   ----------------------------------------------------- \"seasonpass\": ERC-721 seasonal pass NFT for token gated communities & DAO's.",
    "version": 1
  },
  "storageLayout": {
    "storage": [
      {
        "astId": 1158,
        "contract": "contracts/SeasonPass.sol:SeasonPass",
        "label": "_name",
        "offset": 0,
        "slot": "0",
        "type": "t_string_storage"
      },
      {
        "astId": 1160,
        "contract": "contracts/SeasonPass.sol:SeasonPass",
        "label": "_symbol",
        "offset": 0,
        "slot": "1",
        "type": "t_string_storage"
      },
      {
        "astId": 1164,
        "contract": "contracts/SeasonPass.sol:SeasonPass",
        "label": "_owners",
        "offset": 0,
        "slot": "2",
        "type": "t_mapping(t_uint256,t_address)"
      },
      {
        "astId": 1168,
        "contract": "contracts/SeasonPass.sol:SeasonPass",
        "label": "_balances",
        "offset": 0,
        "slot": "3",
        "type": "t_mapping(t_address,t_uint256)"
      },
      {
        "astId": 1172,
        "contract": "contracts/SeasonPass.sol:SeasonPass",
        "label": "_tokenApprovals",
        "offset": 0,
        "slot": "4",
        "type": "t_mapping(t_uint256,t_address)"
      },
      {
        "astId": 1178,
        "contract": "contracts/SeasonPass.sol:SeasonPass",
        "label": "_operatorApprovals",
        "offset": 0,
        "slot": "5",
        "type": "t_mapping(t_address,t_mapping(t_address,t_bool))"
      },
      {
        "astId": 2097,
        "contract": "contracts/SeasonPass.sol:SeasonPass",
        "label": "_ownedTokens",
        "offset": 0,
        "slot": "6",
        "type": "t_mapping(t_address,t_mapping(t_uint256,t_uint256))"
      },
      {
        "astId": 2101,
        "contract": "contracts/SeasonPass.sol:SeasonPass",
        "label": "_ownedTokensIndex",
        "offset": 0,
        "slot": "7",
        "type": "t_mapping(t_uint256,t_uint256)"
      },
      {
        "astId": 2104,
        "contract": "contracts/SeasonPass.sol:SeasonPass",
        "label": "_allTokens",
        "offset": 0,
        "slot": "8",
        "type": "t_array(t_uint256)dyn_storage"
      },
      {
        "astId": 2108,
        "contract": "contracts/SeasonPass.sol:SeasonPass",
        "label": "_allTokensIndex",
        "offset": 0,
        "slot": "9",
        "type": "t_mapping(t_uint256,t_uint256)"
      },
      {
        "astId": 2433,
        "contract": "contracts/SeasonPass.sol:SeasonPass",
        "label": "_tokenURIs",
        "offset": 0,
        "slot": "10",
        "type": "t_mapping(t_uint256,t_string_storage)"
      },
      {
        "astId": 387,
        "contract": "contracts/SeasonPass.sol:SeasonPass",
        "label": "_owner",
        "offset": 0,
        "slot": "11",
        "type": "t_address"
      },
      {
        "astId": 3810,
        "contract": "contracts/SeasonPass.sol:SeasonPass",
        "label": "_tokenIdCounter",
        "offset": 0,
        "slot": "12",
        "type": "t_struct(Counter)2958_storage"
      }
    ],
    "types": {
      "t_address": {
        "encoding": "inplace",
        "label": "address",
        "numberOfBytes": "20"
      },
      "t_array(t_uint256)dyn_storage": {
        "base": "t_uint256",
        "encoding": "dynamic_array",
        "label": "uint256[]",
        "numberOfBytes": "32"
      },
      "t_bool": {
        "encoding": "inplace",
        "label": "bool",
        "numberOfBytes": "1"
      },
      "t_mapping(t_address,t_bool)": {
        "encoding": "mapping",
        "key": "t_address",
        "label": "mapping(address => bool)",
        "numberOfBytes": "32",
        "value": "t_bool"
      },
      "t_mapping(t_address,t_mapping(t_address,t_bool))": {
        "encoding": "mapping",
        "key": "t_address",
        "label": "mapping(address => mapping(address => bool))",
        "numberOfBytes": "32",
        "value": "t_mapping(t_address,t_bool)"
      },
      "t_mapping(t_address,t_mapping(t_uint256,t_uint256))": {
        "encoding": "mapping",
        "key": "t_address",
        "label": "mapping(address => mapping(uint256 => uint256))",
        "numberOfBytes": "32",
        "value": "t_mapping(t_uint256,t_uint256)"
      },
      "t_mapping(t_address,t_uint256)": {
        "encoding": "mapping",
        "key": "t_address",
        "label": "mapping(address => uint256)",
        "numberOfBytes": "32",
        "value": "t_uint256"
      },
      "t_mapping(t_uint256,t_address)": {
        "encoding": "mapping",
        "key": "t_uint256",
        "label": "mapping(uint256 => address)",
        "numberOfBytes": "32",
        "value": "t_address"
      },
      "t_mapping(t_uint256,t_string_storage)": {
        "encoding": "mapping",
        "key": "t_uint256",
        "label": "mapping(uint256 => string)",
        "numberOfBytes": "32",
        "value": "t_string_storage"
      },
      "t_mapping(t_uint256,t_uint256)": {
        "encoding": "mapping",
        "key": "t_uint256",
        "label": "mapping(uint256 => uint256)",
        "numberOfBytes": "32",
        "value": "t_uint256"
      },
      "t_string_storage": {
        "encoding": "bytes",
        "label": "string",
        "numberOfBytes": "32"
      },
      "t_struct(Counter)2958_storage": {
        "encoding": "inplace",
        "label": "struct Counters.Counter",
        "members": [
          {
            "astId": 2957,
            "contract": "contracts/SeasonPass.sol:SeasonPass",
            "label": "_value",
            "offset": 0,
            "slot": "0",
            "type": "t_uint256"
          }
        ],
        "numberOfBytes": "32"
      },
      "t_uint256": {
        "encoding": "inplace",
        "label": "uint256",
        "numberOfBytes": "32"
      }
    }
  }
}