{
  "address": "0x74Ffa8c7db6696aec35Be84eb69aaCEf570db3C7",
  "abi": [
    {
      "inputs": [
        {
          "internalType": "address",
          "name": "owner",
          "type": "address"
        },
        {
          "internalType": "address",
          "name": "_tokenAddress",
          "type": "address"
        },
        {
          "internalType": "uint256",
          "name": "_tokenGate",
          "type": "uint256"
        }
      ],
      "stateMutability": "nonpayable",
      "type": "constructor"
    },
    {
      "anonymous": false,
      "inputs": [
        {
          "indexed": true,
          "internalType": "bytes32",
          "name": "role",
          "type": "bytes32"
        },
        {
          "indexed": true,
          "internalType": "bytes32",
          "name": "previousAdminRole",
          "type": "bytes32"
        },
        {
          "indexed": true,
          "internalType": "bytes32",
          "name": "newAdminRole",
          "type": "bytes32"
        }
      ],
      "name": "RoleAdminChanged",
      "type": "event"
    },
    {
      "anonymous": false,
      "inputs": [
        {
          "indexed": true,
          "internalType": "bytes32",
          "name": "role",
          "type": "bytes32"
        },
        {
          "indexed": true,
          "internalType": "address",
          "name": "account",
          "type": "address"
        },
        {
          "indexed": true,
          "internalType": "address",
          "name": "sender",
          "type": "address"
        }
      ],
      "name": "RoleGranted",
      "type": "event"
    },
    {
      "anonymous": false,
      "inputs": [
        {
          "indexed": true,
          "internalType": "bytes32",
          "name": "role",
          "type": "bytes32"
        },
        {
          "indexed": true,
          "internalType": "address",
          "name": "account",
          "type": "address"
        },
        {
          "indexed": true,
          "internalType": "address",
          "name": "sender",
          "type": "address"
        }
      ],
      "name": "RoleRevoked",
      "type": "event"
    },
    {
      "anonymous": false,
      "inputs": [
        {
          "indexed": true,
          "internalType": "address",
          "name": "from",
          "type": "address"
        },
        {
          "indexed": false,
          "internalType": "uint256",
          "name": "tokenId",
          "type": "uint256"
        },
        {
          "indexed": false,
          "internalType": "uint256",
          "name": "tokenBalance",
          "type": "uint256"
        }
      ],
      "name": "passClaimed",
      "type": "event"
    },
    {
      "anonymous": false,
      "inputs": [
        {
          "indexed": true,
          "internalType": "address",
          "name": "from",
          "type": "address"
        },
        {
          "indexed": false,
          "internalType": "uint256",
          "name": "tokenId",
          "type": "uint256"
        }
      ],
      "name": "passRevoked",
      "type": "event"
    },
    {
      "anonymous": false,
      "inputs": [
        {
          "indexed": true,
          "internalType": "address",
          "name": "from",
          "type": "address"
        },
        {
          "indexed": true,
          "internalType": "address",
          "name": "seasonPassAddress",
          "type": "address"
        }
      ],
      "name": "seasonPassAddressUpdated",
      "type": "event"
    },
    {
      "anonymous": false,
      "inputs": [
        {
          "indexed": true,
          "internalType": "address",
          "name": "from",
          "type": "address"
        },
        {
          "indexed": true,
          "internalType": "address",
          "name": "tokenAddress",
          "type": "address"
        }
      ],
      "name": "tokenAddressUpdated",
      "type": "event"
    },
    {
      "anonymous": false,
      "inputs": [
        {
          "indexed": true,
          "internalType": "address",
          "name": "from",
          "type": "address"
        },
        {
          "indexed": true,
          "internalType": "uint256",
          "name": "tokenGate",
          "type": "uint256"
        }
      ],
      "name": "tokenGateUpdated",
      "type": "event"
    },
    {
      "inputs": [],
      "name": "DEFAULT_ADMIN_ROLE",
      "outputs": [
        {
          "internalType": "bytes32",
          "name": "",
          "type": "bytes32"
        }
      ],
      "stateMutability": "view",
      "type": "function"
    },
    {
      "inputs": [],
      "name": "OWNER_ROLE",
      "outputs": [
        {
          "internalType": "bytes32",
          "name": "",
          "type": "bytes32"
        }
      ],
      "stateMutability": "view",
      "type": "function"
    },
    {
      "inputs": [],
      "name": "claim",
      "outputs": [],
      "stateMutability": "nonpayable",
      "type": "function"
    },
    {
      "inputs": [
        {
          "internalType": "bytes32",
          "name": "role",
          "type": "bytes32"
        }
      ],
      "name": "getRoleAdmin",
      "outputs": [
        {
          "internalType": "bytes32",
          "name": "",
          "type": "bytes32"
        }
      ],
      "stateMutability": "view",
      "type": "function"
    },
    {
      "inputs": [
        {
          "internalType": "bytes32",
          "name": "role",
          "type": "bytes32"
        },
        {
          "internalType": "address",
          "name": "account",
          "type": "address"
        }
      ],
      "name": "grantRole",
      "outputs": [],
      "stateMutability": "nonpayable",
      "type": "function"
    },
    {
      "inputs": [
        {
          "internalType": "bytes32",
          "name": "role",
          "type": "bytes32"
        },
        {
          "internalType": "address",
          "name": "account",
          "type": "address"
        }
      ],
      "name": "hasRole",
      "outputs": [
        {
          "internalType": "bool",
          "name": "",
          "type": "bool"
        }
      ],
      "stateMutability": "view",
      "type": "function"
    },
    {
      "inputs": [
        {
          "internalType": "address",
          "name": "memberAddress",
          "type": "address"
        }
      ],
      "name": "hasValidSeasonPass",
      "outputs": [
        {
          "internalType": "bool",
          "name": "",
          "type": "bool"
        }
      ],
      "stateMutability": "view",
      "type": "function"
    },
    {
      "inputs": [
        {
          "internalType": "bytes32",
          "name": "role",
          "type": "bytes32"
        },
        {
          "internalType": "address",
          "name": "account",
          "type": "address"
        }
      ],
      "name": "renounceRole",
      "outputs": [],
      "stateMutability": "nonpayable",
      "type": "function"
    },
    {
      "inputs": [
        {
          "internalType": "uint256",
          "name": "tokenId",
          "type": "uint256"
        }
      ],
      "name": "revoke",
      "outputs": [],
      "stateMutability": "nonpayable",
      "type": "function"
    },
    {
      "inputs": [
        {
          "internalType": "bytes32",
          "name": "role",
          "type": "bytes32"
        },
        {
          "internalType": "address",
          "name": "account",
          "type": "address"
        }
      ],
      "name": "revokeRole",
      "outputs": [],
      "stateMutability": "nonpayable",
      "type": "function"
    },
    {
      "inputs": [],
      "name": "seasonPassAddress",
      "outputs": [
        {
          "internalType": "address",
          "name": "",
          "type": "address"
        }
      ],
      "stateMutability": "view",
      "type": "function"
    },
    {
      "inputs": [
        {
          "internalType": "address",
          "name": "_seasonPassAddress",
          "type": "address"
        }
      ],
      "name": "setSeasonPass",
      "outputs": [],
      "stateMutability": "nonpayable",
      "type": "function"
    },
    {
      "inputs": [
        {
          "internalType": "address",
          "name": "_tokenAddress",
          "type": "address"
        }
      ],
      "name": "setTokenAddress",
      "outputs": [],
      "stateMutability": "nonpayable",
      "type": "function"
    },
    {
      "inputs": [
        {
          "internalType": "uint256",
          "name": "_tokenGate",
          "type": "uint256"
        }
      ],
      "name": "setTokenGate",
      "outputs": [],
      "stateMutability": "nonpayable",
      "type": "function"
    },
    {
      "inputs": [
        {
          "internalType": "bytes4",
          "name": "interfaceId",
          "type": "bytes4"
        }
      ],
      "name": "supportsInterface",
      "outputs": [
        {
          "internalType": "bool",
          "name": "",
          "type": "bool"
        }
      ],
      "stateMutability": "view",
      "type": "function"
    },
    {
      "inputs": [],
      "name": "tokenAddress",
      "outputs": [
        {
          "internalType": "address",
          "name": "",
          "type": "address"
        }
      ],
      "stateMutability": "view",
      "type": "function"
    },
    {
      "inputs": [],
      "name": "tokenGate",
      "outputs": [
        {
          "internalType": "uint256",
          "name": "",
          "type": "uint256"
        }
      ],
      "stateMutability": "view",
      "type": "function"
    }
  ],
  "transactionHash": "0xe379c1004390fb8b9e6039b47a528496711e86febc52eb3921be750692433d0e",
  "args": [
    "0xf39Fd6e51aad88F6F4ce6aB8827279cffFb92266",
    "0x3e65401510C7491D24F09A28dF452b8664b3A7Aa",
    "75"
  ],
  "solcInputHash": "c49e4c1cf562ec9e635422b6f25cf3da",
  "bytecode": "0x60806040523480156200001157600080fd5b506040516200266238038062002662833981810160405281019062000037919062000261565b620000697fb19546dff01e856fb3f010c267a7b1c60363cf8a4664e21cc89c26224620214e84620000ba60201b60201c565b81600260006101000a81548173ffffffffffffffffffffffffffffffffffffffff021916908373ffffffffffffffffffffffffffffffffffffffff1602179055508060038190555050505062000329565b620000cc8282620000d060201b60201c565b5050565b620000e28282620001c160201b60201c565b620001bd57600160008084815260200190815260200160002060000160008373ffffffffffffffffffffffffffffffffffffffff1673ffffffffffffffffffffffffffffffffffffffff16815260200190815260200160002060006101000a81548160ff021916908315150217905550620001626200022b60201b60201c565b73ffffffffffffffffffffffffffffffffffffffff168173ffffffffffffffffffffffffffffffffffffffff16837f2f8788117e7eff1d82e926ec794901d17c78024a50270940304540a733656f0d60405160405180910390a45b5050565b600080600084815260200190815260200160002060000160008373ffffffffffffffffffffffffffffffffffffffff1673ffffffffffffffffffffffffffffffffffffffff16815260200190815260200160002060009054906101000a900460ff16905092915050565b600033905090565b6000815190506200024481620002f5565b92915050565b6000815190506200025b816200030f565b92915050565b6000806000606084860312156200027757600080fd5b6000620002878682870162000233565b93505060206200029a8682870162000233565b9250506040620002ad868287016200024a565b9150509250925092565b6000620002c482620002cb565b9050919050565b600073ffffffffffffffffffffffffffffffffffffffff82169050919050565b6000819050919050565b6200030081620002b7565b81146200030c57600080fd5b50565b6200031a81620002eb565b81146200032657600080fd5b50565b61232980620003396000396000f3fe608060405234801561001057600080fd5b506004361061010b5760003560e01c80634e71d92d116100a2578063a217fddf11610071578063a217fddf146102a4578063b3996408146102c2578063d547741f146102de578063e58378bb146102fa578063fec545f9146103185761010b565b80634e71d92d1461022e57806350008e4a1461023857806391d14854146102565780639d76ea58146102865761010b565b806326a4e8d2116100de57806326a4e8d2146101aa5780632f2ff15d146101c6578063340a3a7f146101e257806336568abe146102125761010b565b80630172556e1461011057806301ffc9a71461012e57806320c5429b1461015e578063248a9ca31461017a575b600080fd5b610118610334565b6040516101259190611c45565b60405180910390f35b610148600480360381019061014391906119d2565b61035a565b6040516101559190611c60565b60405180910390f35b610178600480360381019061017391906119fb565b6103d4565b005b610194600480360381019061018f919061196d565b610680565b6040516101a19190611c7b565b60405180910390f35b6101c460048036038101906101bf919061191b565b61069f565b005b6101e060048036038101906101db9190611996565b6107a6565b005b6101fc60048036038101906101f7919061191b565b6107cf565b6040516102099190611c60565b60405180910390f35b61022c60048036038101906102279190611996565b6109ce565b005b610236610a51565b005b610240610e28565b60405161024d9190611e2b565b60405180910390f35b610270600480360381019061026b9190611996565b610e2e565b60405161027d9190611c60565b60405180910390f35b61028e610e98565b60405161029b9190611c45565b60405180910390f35b6102ac610ebe565b6040516102b99190611c7b565b60405180910390f35b6102dc60048036038101906102d791906119fb565b610ec5565b005b6102f860048036038101906102f39190611996565b610f7c565b005b610302610fa5565b60405161030f9190611c7b565b60405180910390f35b610332600480360381019061032d919061191b565b610fc9565b005b600160009054906101000a900473ffffffffffffffffffffffffffffffffffffffff1681565b60007f7965db0b000000000000000000000000000000000000000000000000000000007bffffffffffffffffffffffffffffffffffffffffffffffffffffffff1916827bffffffffffffffffffffffffffffffffffffffffffffffffffffffff191614806103cd57506103cc826110d0565b5b9050919050565b6103fe7fb19546dff01e856fb3f010c267a7b1c60363cf8a4664e21cc89c26224620214e33610e2e565b61043d576040517f08c379a000000000000000000000000000000000000000000000000000000000815260040161043490611d8b565b60405180910390fd5b60006040518060400160405280600881526020017f7265766f6b6564210000000000000000000000000000000000000000000000008152509050600160009054906101000a900473ffffffffffffffffffffffffffffffffffffffff1673ffffffffffffffffffffffffffffffffffffffff1663510ef1de83836040518363ffffffff1660e01b81526004016104d4929190611e46565b600060405180830381600087803b1580156104ee57600080fd5b505af1158015610502573d6000803e3d6000fd5b505050506000600160009054906101000a900473ffffffffffffffffffffffffffffffffffffffff1673ffffffffffffffffffffffffffffffffffffffff16636352211e846040518263ffffffff1660e01b81526004016105639190611e2b565b602060405180830381600087803b15801561057d57600080fd5b505af1158015610591573d6000803e3d6000fd5b505050506040513d601f19601f820116820180604052508101906105b59190611944565b905061062d6040518060400160405280601281526020017f746f6b656e207265766f6b656420666f723a0000000000000000000000000000815250826040518060400160405280600981526020017f202020746f6b656e3a00000000000000000000000000000000000000000000008152508661113a565b8073ffffffffffffffffffffffffffffffffffffffff167f6601496808769e9fdbdcf0fbf791af78bc138fd326aa3af5dfa3f579bd59a5d1846040516106739190611e2b565b60405180910390a2505050565b6000806000838152602001908152602001600020600101549050919050565b6106c97fb19546dff01e856fb3f010c267a7b1c60363cf8a4664e21cc89c26224620214e33610e2e565b610708576040517f08c379a00000000000000000000000000000000000000000000000000000000081526004016106ff90611dcb565b60405180910390fd5b80600260006101000a81548173ffffffffffffffffffffffffffffffffffffffff021916908373ffffffffffffffffffffffffffffffffffffffff1602179055508073ffffffffffffffffffffffffffffffffffffffff163373ffffffffffffffffffffffffffffffffffffffff167f366082afbf099912856b8a320bfecf2b25d4b1e0c7de7a8e1697be2267cd11d460405160405180910390a350565b6107af82610680565b6107c0816107bb6111dc565b6111e4565b6107ca8383611281565b505050565b6000600354600260009054906101000a900473ffffffffffffffffffffffffffffffffffffffff1673ffffffffffffffffffffffffffffffffffffffff166370a08231846040518263ffffffff1660e01b815260040161082f9190611c45565b60206040518083038186803b15801561084757600080fd5b505afa15801561085b573d6000803e3d6000fd5b505050506040513d601f19601f8201168201806040525081019061087f9190611a24565b1015801561093857506000600160009054906101000a900473ffffffffffffffffffffffffffffffffffffffff1673ffffffffffffffffffffffffffffffffffffffff166370a08231846040518263ffffffff1660e01b81526004016108e59190611c45565b60206040518083038186803b1580156108fd57600080fd5b505afa158015610911573d6000803e3d6000fd5b505050506040513d601f19601f820116820180604052508101906109359190611a24565b10155b156109855761097c6040518060400160405280601b81526020017f736561736f6e20706173732076616c69646174656420666f723a20000000000081525083611361565b600190506109c9565b6109c46040518060400160405280601981526020017f736561736f6e207061737320696e76616c696420666f723a200000000000000081525083611361565b600090505b919050565b6109d66111dc565b73ffffffffffffffffffffffffffffffffffffffff168173ffffffffffffffffffffffffffffffffffffffff1614610a43576040517f08c379a0000000000000000000000000000000000000000000000000000000008152600401610a3a90611e0b565b60405180910390fd5b610a4d82826113fd565b5050565b600354600260009054906101000a900473ffffffffffffffffffffffffffffffffffffffff1673ffffffffffffffffffffffffffffffffffffffff166370a08231336040518263ffffffff1660e01b8152600401610aaf9190611c45565b60206040518083038186803b158015610ac757600080fd5b505afa158015610adb573d6000803e3d6000fd5b505050506040513d601f19601f82011682018060405250810190610aff9190611a24565b10158015610bb757506000600160009054906101000a900473ffffffffffffffffffffffffffffffffffffffff1673ffffffffffffffffffffffffffffffffffffffff166370a08231336040518263ffffffff1660e01b8152600401610b659190611c45565b60206040518083038186803b158015610b7d57600080fd5b505afa158015610b91573d6000803e3d6000fd5b505050506040513d601f19601f82011682018060405250810190610bb59190611a24565b145b610bf6576040517f08c379a0000000000000000000000000000000000000000000000000000000008152600401610bed90611dab565b60405180910390fd5b6000600260009054906101000a900473ffffffffffffffffffffffffffffffffffffffff1673ffffffffffffffffffffffffffffffffffffffff166370a08231336040518263ffffffff1660e01b8152600401610c539190611c45565b60206040518083038186803b158015610c6b57600080fd5b505afa158015610c7f573d6000803e3d6000fd5b505050506040513d601f19601f82011682018060405250810190610ca39190611a24565b9050610ce46040518060400160405280601981526020017f6d73672e73656e64657220746f6b656e42616c616e6365203d00000000000000815250826114de565b6000600160009054906101000a900473ffffffffffffffffffffffffffffffffffffffff1673ffffffffffffffffffffffffffffffffffffffff166340d097c3336040518263ffffffff1660e01b8152600401610d419190611c45565b602060405180830381600087803b158015610d5b57600080fd5b505af1158015610d6f573d6000803e3d6000fd5b505050506040513d601f19601f82011682018060405250810190610d939190611a24565b90503373ffffffffffffffffffffffffffffffffffffffff167f2821d1a27423d5750305cd745ca79057096385db5e8a9126e2ee850aa8cd60498284604051610ddd929190611e76565b60405180910390a2610e246040518060400160405280601281526020017f746f6b656e20636c61696d656420666f723a0000000000000000000000000000815250826114de565b5050565b60035481565b600080600084815260200190815260200160002060000160008373ffffffffffffffffffffffffffffffffffffffff1673ffffffffffffffffffffffffffffffffffffffff16815260200190815260200160002060009054906101000a900460ff16905092915050565b600260009054906101000a900473ffffffffffffffffffffffffffffffffffffffff1681565b6000801b81565b610eef7fb19546dff01e856fb3f010c267a7b1c60363cf8a4664e21cc89c26224620214e33610e2e565b610f2e576040517f08c379a0000000000000000000000000000000000000000000000000000000008152600401610f2590611dcb565b60405180910390fd5b80600381905550803373ffffffffffffffffffffffffffffffffffffffff167f0ca146f7e1b3cd702734bb3517d67d15451a9a19ae98602fedf14b352e216a8060405160405180910390a350565b610f8582610680565b610f9681610f916111dc565b6111e4565b610fa083836113fd565b505050565b7fb19546dff01e856fb3f010c267a7b1c60363cf8a4664e21cc89c26224620214e81565b610ff37fb19546dff01e856fb3f010c267a7b1c60363cf8a4664e21cc89c26224620214e33610e2e565b611032576040517f08c379a000000000000000000000000000000000000000000000000000000000815260040161102990611deb565b60405180910390fd5b80600160006101000a81548173ffffffffffffffffffffffffffffffffffffffff021916908373ffffffffffffffffffffffffffffffffffffffff1602179055508073ffffffffffffffffffffffffffffffffffffffff163373ffffffffffffffffffffffffffffffffffffffff167f5913d7c6517eea41083539dff04aa7748c6b220167ad155e1333646b5eada8e160405160405180910390a350565b60007f01ffc9a7000000000000000000000000000000000000000000000000000000007bffffffffffffffffffffffffffffffffffffffffffffffffffffffff1916827bffffffffffffffffffffffffffffffffffffffffffffffffffffffff1916149050919050565b6111d6848484846040516024016111549493929190611ce8565b6040516020818303038152906040527f8f624be9000000000000000000000000000000000000000000000000000000007bffffffffffffffffffffffffffffffffffffffffffffffffffffffff19166020820180517bffffffffffffffffffffffffffffffffffffffffffffffffffffffff838183161783525050505061157a565b50505050565b600033905090565b6111ee8282610e2e565b61127d576112138173ffffffffffffffffffffffffffffffffffffffff1660146115a3565b6112218360001c60206115a3565b604051602001611232929190611c0b565b6040516020818303038152906040526040517f08c379a00000000000000000000000000000000000000000000000000000000081526004016112749190611c96565b60405180910390fd5b5050565b61128b8282610e2e565b61135d57600160008084815260200190815260200160002060000160008373ffffffffffffffffffffffffffffffffffffffff1673ffffffffffffffffffffffffffffffffffffffff16815260200190815260200160002060006101000a81548160ff0219169083151502179055506113026111dc565b73ffffffffffffffffffffffffffffffffffffffff168173ffffffffffffffffffffffffffffffffffffffff16837f2f8788117e7eff1d82e926ec794901d17c78024a50270940304540a733656f0d60405160405180910390a45b5050565b6113f98282604051602401611377929190611cb8565b6040516020818303038152906040527f319af333000000000000000000000000000000000000000000000000000000007bffffffffffffffffffffffffffffffffffffffffffffffffffffffff19166020820180517bffffffffffffffffffffffffffffffffffffffffffffffffffffffff838183161783525050505061157a565b5050565b6114078282610e2e565b156114da57600080600084815260200190815260200160002060000160008373ffffffffffffffffffffffffffffffffffffffff1673ffffffffffffffffffffffffffffffffffffffff16815260200190815260200160002060006101000a81548160ff02191690831515021790555061147f6111dc565b73ffffffffffffffffffffffffffffffffffffffff168173ffffffffffffffffffffffffffffffffffffffff16837ff6391f5c32d9c69d2a47ea670b442974b53935d1edc7fd64eb21e047a839171b60405160405180910390a45b5050565b61157682826040516024016114f4929190611d3b565b6040516020818303038152906040527f9710a9d0000000000000000000000000000000000000000000000000000000007bffffffffffffffffffffffffffffffffffffffffffffffffffffffff19166020820180517bffffffffffffffffffffffffffffffffffffffffffffffffffffffff838183161783525050505061157a565b5050565b60008151905060006a636f6e736f6c652e6c6f679050602083016000808483855afa5050505050565b6060600060028360026115b69190611f1c565b6115c09190611ec6565b67ffffffffffffffff8111156115ff577f4e487b7100000000000000000000000000000000000000000000000000000000600052604160045260246000fd5b6040519080825280601f01601f1916602001820160405280156116315781602001600182028036833780820191505090505b5090507f30000000000000000000000000000000000000000000000000000000000000008160008151811061168f577f4e487b7100000000000000000000000000000000000000000000000000000000600052603260045260246000fd5b60200101907effffffffffffffffffffffffffffffffffffffffffffffffffffffffffffff1916908160001a9053507f780000000000000000000000000000000000000000000000000000000000000081600181518110611719577f4e487b7100000000000000000000000000000000000000000000000000000000600052603260045260246000fd5b60200101907effffffffffffffffffffffffffffffffffffffffffffffffffffffffffffff1916908160001a905350600060018460026117599190611f1c565b6117639190611ec6565b90505b600181111561184f577f3031323334353637383961626364656600000000000000000000000000000000600f8616601081106117cb577f4e487b7100000000000000000000000000000000000000000000000000000000600052603260045260246000fd5b1a60f81b828281518110611808577f4e487b7100000000000000000000000000000000000000000000000000000000600052603260045260246000fd5b60200101907effffffffffffffffffffffffffffffffffffffffffffffffffffffffffffff1916908160001a905350600485901c94508061184890612027565b9050611766565b5060008414611893576040517f08c379a000000000000000000000000000000000000000000000000000000000815260040161188a90611d6b565b60405180910390fd5b8091505092915050565b6000813590506118ac81612297565b92915050565b6000815190506118c181612297565b92915050565b6000813590506118d6816122ae565b92915050565b6000813590506118eb816122c5565b92915050565b600081359050611900816122dc565b92915050565b600081519050611915816122dc565b92915050565b60006020828403121561192d57600080fd5b600061193b8482850161189d565b91505092915050565b60006020828403121561195657600080fd5b6000611964848285016118b2565b91505092915050565b60006020828403121561197f57600080fd5b600061198d848285016118c7565b91505092915050565b600080604083850312156119a957600080fd5b60006119b7858286016118c7565b92505060206119c88582860161189d565b9150509250929050565b6000602082840312156119e457600080fd5b60006119f2848285016118dc565b91505092915050565b600060208284031215611a0d57600080fd5b6000611a1b848285016118f1565b91505092915050565b600060208284031215611a3657600080fd5b6000611a4484828501611906565b91505092915050565b611a5681611f76565b82525050565b611a6581611f88565b82525050565b611a7481611f94565b82525050565b6000611a8582611e9f565b611a8f8185611eaa565b9350611a9f818560208601611ff4565b611aa881612080565b840191505092915050565b6000611abe82611e9f565b611ac88185611ebb565b9350611ad8818560208601611ff4565b80840191505092915050565b6000611af1602083611eaa565b9150611afc82612091565b602082019050919050565b6000611b14602983611eaa565b9150611b1f826120ba565b604082019050919050565b6000611b37603683611eaa565b9150611b4282612109565b604082019050919050565b6000611b5a602d83611eaa565b9150611b6582612158565b604082019050919050565b6000611b7d601783611ebb565b9150611b88826121a7565b601782019050919050565b6000611ba0602883611eaa565b9150611bab826121d0565b604082019050919050565b6000611bc3601183611ebb565b9150611bce8261221f565b601182019050919050565b6000611be6602f83611eaa565b9150611bf182612248565b604082019050919050565b611c0581611fea565b82525050565b6000611c1682611b70565b9150611c228285611ab3565b9150611c2d82611bb6565b9150611c398284611ab3565b91508190509392505050565b6000602082019050611c5a6000830184611a4d565b92915050565b6000602082019050611c756000830184611a5c565b92915050565b6000602082019050611c906000830184611a6b565b92915050565b60006020820190508181036000830152611cb08184611a7a565b905092915050565b60006040820190508181036000830152611cd28185611a7a565b9050611ce16020830184611a4d565b9392505050565b60006080820190508181036000830152611d028187611a7a565b9050611d116020830186611a4d565b8181036040830152611d238185611a7a565b9050611d326060830184611bfc565b95945050505050565b60006040820190508181036000830152611d558185611a7a565b9050611d646020830184611bfc565b9392505050565b60006020820190508181036000830152611d8481611ae4565b9050919050565b60006020820190508181036000830152611da481611b07565b9050919050565b60006020820190508181036000830152611dc481611b2a565b9050919050565b60006020820190508181036000830152611de481611b4d565b9050919050565b60006020820190508181036000830152611e0481611b93565b9050919050565b60006020820190508181036000830152611e2481611bd9565b9050919050565b6000602082019050611e406000830184611bfc565b92915050565b6000604082019050611e5b6000830185611bfc565b8181036020830152611e6d8184611a7a565b90509392505050565b6000604082019050611e8b6000830185611bfc565b611e986020830184611bfc565b9392505050565b600081519050919050565b600082825260208201905092915050565b600081905092915050565b6000611ed182611fea565b9150611edc83611fea565b9250827fffffffffffffffffffffffffffffffffffffffffffffffffffffffffffffffff03821115611f1157611f10612051565b5b828201905092915050565b6000611f2782611fea565b9150611f3283611fea565b9250817fffffffffffffffffffffffffffffffffffffffffffffffffffffffffffffffff0483118215151615611f6b57611f6a612051565b5b828202905092915050565b6000611f8182611fca565b9050919050565b60008115159050919050565b6000819050919050565b60007fffffffff0000000000000000000000000000000000000000000000000000000082169050919050565b600073ffffffffffffffffffffffffffffffffffffffff82169050919050565b6000819050919050565b60005b83811015612012578082015181840152602081019050611ff7565b83811115612021576000848401525b50505050565b600061203282611fea565b9150600082141561204657612045612051565b5b600182039050919050565b7f4e487b7100000000000000000000000000000000000000000000000000000000600052601160045260246000fd5b6000601f19601f8301169050919050565b7f537472696e67733a20686578206c656e67746820696e73756666696369656e74600082015250565b7f63616c6c657220646f6573206e6f742068617665207065726d697373696f6e2060008201527f746f207265766f6b650000000000000000000000000000000000000000000000602082015250565b7f596f7520646f6e2774206d6565742074686520726571756972656d656e74732060008201527f746f20636c61696d206120736561736f6e207061737300000000000000000000602082015250565b7f43616c6c657220646f6573206e6f742068617665207065726d697373696f6e2160008201527f207568206f68207374696e6b7900000000000000000000000000000000000000602082015250565b7f416363657373436f6e74726f6c3a206163636f756e7420000000000000000000600082015250565b7f63616c6c657220646f65736e27742068617665207065726d697373696f6e212060008201527f6e61756768747921000000000000000000000000000000000000000000000000602082015250565b7f206973206d697373696e6720726f6c6520000000000000000000000000000000600082015250565b7f416363657373436f6e74726f6c3a2063616e206f6e6c792072656e6f756e636560008201527f20726f6c657320666f722073656c660000000000000000000000000000000000602082015250565b6122a081611f76565b81146122ab57600080fd5b50565b6122b781611f94565b81146122c257600080fd5b50565b6122ce81611f9e565b81146122d957600080fd5b50565b6122e581611fea565b81146122f057600080fd5b5056fea264697066735822122047481de5285c92513755184463b518c7d6f38c6f2daa02b4b8dae3b15e5e7bf164736f6c63430008040033",
  "devdoc": {
    "kind": "dev",
    "methods": {
      "claim()": {
        "details": "this function needs work. metadata will need to come in here if it's generated on front end (ipfs hash passed in a string)."
      },
      "constructor": {
        "details": "not sure about accesscontrol yet? is this the  best solution?",
        "params": {
          "_tokenAddress": "ERC-20 contract used for tokengate",
          "owner": "The DAO multisig address to  control the contract"
        }
      },
      "getRoleAdmin(bytes32)": {
        "details": "Returns the admin role that controls `role`. See {grantRole} and {revokeRole}. To change a role's admin, use {_setRoleAdmin}."
      },
      "grantRole(bytes32,address)": {
        "details": "Grants `role` to `account`. If `account` had not been already granted `role`, emits a {RoleGranted} event. Requirements: - the caller must have ``role``'s admin role."
      },
      "hasRole(bytes32,address)": {
        "details": "Returns `true` if `account` has been granted `role`."
      },
      "renounceRole(bytes32,address)": {
        "details": "Revokes `role` from the calling account. Roles are often managed via {grantRole} and {revokeRole}: this function's purpose is to provide a mechanism for accounts to lose their privileges if they are compromised (such as when a trusted device is misplaced). If the calling account had been granted `role`, emits a {RoleRevoked} event. Requirements: - the caller must be `account`."
      },
      "revokeRole(bytes32,address)": {
        "details": "Revokes `role` from `account`. If `account` had been granted `role`, emits a {RoleRevoked} event. Requirements: - the caller must have ``role``'s admin role."
      },
      "setSeasonPass(address)": {
        "details": "public function but restricted to owner only role",
        "params": {
          "_seasonPassAddress": "address var for inputing contract"
        }
      },
      "setTokenAddress(address)": {
        "details": "function is public but accesscontrol restricted to owner",
        "params": {
          "_tokenAddress": "input param for ERC-20 contract address"
        }
      },
      "setTokenGate(uint256)": {
        "details": "maybe should be decimal based? function is public but restricted to owner only via accesscontrol",
        "params": {
          "_tokenGate": "uint256 value for token gate amount (e.g '55')"
        }
      },
      "supportsInterface(bytes4)": {
        "details": "See {IERC165-supportsInterface}."
      }
    },
    "version": 1
  },
  "userdoc": {
    "events": {
      "tokenAddressUpdated(address,address)": {
        "notice": "Events"
      }
    },
    "kind": "user",
    "methods": {
      "OWNER_ROLE()": {
        "notice": "Role identifiers"
      },
      "claim()": {
        "notice": "claim() is a public function that is the entry point to the season pass. function will be called by front-end interfaces to issue new seasonpass nft's to token holders/DAO members. it requires the user to hold the tokengate amount of tokens to transact."
      },
      "constructor": {
        "notice": "constructor sets owner permission on deployment  and sets child contract and token gate amount"
      },
      "hasValidSeasonPass(address)": {
        "notice": "public accessible function to see if input address has a valid season pass , if it doesn't, we'll  do stuff? (can be modified, right now we just return boolean)"
      },
      "revoke(uint256)": {
        "notice": "function claim is called to revoke a season pass from a member  not meeting token gate requirements. this can be implemented as a token, burn, transfer, or change of metadata. not sure how we want to handle this yet?"
      },
      "seasonPassAddress()": {
        "notice": "Public variables"
      },
      "setSeasonPass(address)": {
        "notice": "setter function to update contract address for seasonpass ERC-721 "
      },
      "setTokenAddress(address)": {
        "notice": "setter function for updating the token gate ERC-20 contract address"
      },
      "setTokenGate(uint256)": {
        "notice": "setter function for updating token gate amount (numerical value)"
      }
    },
    "version": 1
  },
  "storageLayout": {
    "storage": [
      {
        "astId": 24,
        "contract": "contracts/SeasonPassController.sol:SeasonPassController",
        "label": "_roles",
        "offset": 0,
        "slot": "0",
        "type": "t_mapping(t_bytes32,t_struct(RoleData)19_storage)"
      },
      {
        "astId": 974,
        "contract": "contracts/SeasonPassController.sol:SeasonPassController",
        "label": "seasonPassAddress",
        "offset": 0,
        "slot": "1",
        "type": "t_address"
      },
      {
        "astId": 976,
        "contract": "contracts/SeasonPassController.sol:SeasonPassController",
        "label": "tokenAddress",
        "offset": 0,
        "slot": "2",
        "type": "t_address"
      },
      {
        "astId": 978,
        "contract": "contracts/SeasonPassController.sol:SeasonPassController",
        "label": "tokenGate",
        "offset": 0,
        "slot": "3",
        "type": "t_uint256"
      }
    ],
    "types": {
      "t_address": {
        "encoding": "inplace",
        "label": "address",
        "numberOfBytes": "20"
      },
      "t_bool": {
        "encoding": "inplace",
        "label": "bool",
        "numberOfBytes": "1"
      },
      "t_bytes32": {
        "encoding": "inplace",
        "label": "bytes32",
        "numberOfBytes": "32"
      },
      "t_mapping(t_address,t_bool)": {
        "encoding": "mapping",
        "key": "t_address",
        "label": "mapping(address => bool)",
        "numberOfBytes": "32",
        "value": "t_bool"
      },
      "t_mapping(t_bytes32,t_struct(RoleData)19_storage)": {
        "encoding": "mapping",
        "key": "t_bytes32",
        "label": "mapping(bytes32 => struct AccessControl.RoleData)",
        "numberOfBytes": "32",
        "value": "t_struct(RoleData)19_storage"
      },
      "t_struct(RoleData)19_storage": {
        "encoding": "inplace",
        "label": "struct AccessControl.RoleData",
        "members": [
          {
            "astId": 16,
            "contract": "contracts/SeasonPassController.sol:SeasonPassController",
            "label": "members",
            "offset": 0,
            "slot": "0",
            "type": "t_mapping(t_address,t_bool)"
          },
          {
            "astId": 18,
            "contract": "contracts/SeasonPassController.sol:SeasonPassController",
            "label": "adminRole",
            "offset": 0,
            "slot": "1",
            "type": "t_bytes32"
          }
        ],
        "numberOfBytes": "64"
      },
      "t_uint256": {
        "encoding": "inplace",
        "label": "uint256",
        "numberOfBytes": "32"
      }
    }
  }
}